{
  "_format": "hh-sol-artifact-1",
  "contractName": "ContributorRegistry",
  "sourceName": "contracts/ContributorRegistry.sol",
  "abi": [
    {
      "inputs": [
        {
          "internalType": "address",
          "name": "owner",
          "type": "address"
        }
      ],
      "stateMutability": "nonpayable",
      "type": "constructor"
    },
    {
      "inputs": [
        {
          "internalType": "address",
          "name": "owner",
          "type": "address"
        }
      ],
      "name": "OwnableInvalidOwner",
      "type": "error"
    },
    {
      "inputs": [
        {
          "internalType": "address",
          "name": "account",
          "type": "address"
        }
      ],
      "name": "OwnableUnauthorizedAccount",
      "type": "error"
    },
    {
      "inputs": [],
      "name": "ReentrancyGuardReentrantCall",
      "type": "error"
    },
    {
      "anonymous": false,
      "inputs": [
        {
          "indexed": true,
          "internalType": "address",
          "name": "vault",
          "type": "address"
        },
        {
          "indexed": true,
          "internalType": "address",
          "name": "wallet",
          "type": "address"
        },
        {
          "indexed": false,
          "internalType": "string",
          "name": "name",
          "type": "string"
        },
        {
          "indexed": false,
          "internalType": "string",
          "name": "role",
          "type": "string"
        },
        {
          "indexed": false,
          "internalType": "uint256",
          "name": "monthlyAllocation",
          "type": "uint256"
        }
      ],
      "name": "ContributorAdded",
      "type": "event"
    },
    {
      "anonymous": false,
      "inputs": [
        {
          "indexed": true,
          "internalType": "address",
          "name": "vault",
          "type": "address"
        },
        {
          "indexed": true,
          "internalType": "address",
          "name": "wallet",
          "type": "address"
        },
        {
          "indexed": false,
          "internalType": "uint256",
          "name": "amount",
          "type": "uint256"
        }
      ],
      "name": "ContributorEarningsUpdated",
      "type": "event"
    },
    {
      "anonymous": false,
      "inputs": [
        {
          "indexed": true,
          "internalType": "address",
          "name": "vault",
          "type": "address"
        },
        {
          "indexed": true,
          "internalType": "address",
          "name": "wallet",
          "type": "address"
        }
      ],
      "name": "ContributorRemoved",
      "type": "event"
    },
    {
      "anonymous": false,
      "inputs": [
        {
          "indexed": true,
          "internalType": "address",
          "name": "vault",
          "type": "address"
        },
        {
          "indexed": true,
          "internalType": "address",
          "name": "wallet",
          "type": "address"
        },
        {
          "indexed": false,
          "internalType": "uint256",
          "name": "newAllocation",
          "type": "uint256"
        }
      ],
      "name": "ContributorUpdated",
      "type": "event"
    },
    {
      "anonymous": false,
      "inputs": [
        {
          "indexed": true,
          "internalType": "address",
          "name": "previousOwner",
          "type": "address"
        },
        {
          "indexed": true,
          "internalType": "address",
          "name": "newOwner",
          "type": "address"
        }
      ],
      "name": "OwnershipTransferred",
      "type": "event"
    },
    {
      "inputs": [
        {
          "internalType": "address",
          "name": "vault",
          "type": "address"
        },
        {
          "internalType": "address",
          "name": "wallet",
          "type": "address"
        },
        {
          "internalType": "string",
          "name": "name",
          "type": "string"
        },
        {
          "internalType": "string",
          "name": "role",
          "type": "string"
        },
        {
          "internalType": "uint256",
          "name": "monthlyAllocation",
          "type": "uint256"
        }
      ],
      "name": "addContributor",
      "outputs": [],
      "stateMutability": "nonpayable",
      "type": "function"
    },
    {
      "inputs": [
        {
          "internalType": "address",
          "name": "",
          "type": "address"
        },
        {
          "internalType": "address",
          "name": "",
          "type": "address"
        }
      ],
      "name": "contributors",
      "outputs": [
        {
          "internalType": "string",
          "name": "name",
          "type": "string"
        },
        {
          "internalType": "string",
          "name": "role",
          "type": "string"
        },
        {
          "internalType": "address",
          "name": "wallet",
          "type": "address"
        },
        {
          "internalType": "uint256",
          "name": "monthlyAllocation",
          "type": "uint256"
        },
        {
          "internalType": "uint256",
          "name": "totalEarned",
          "type": "uint256"
        },
        {
          "internalType": "uint256",
          "name": "joinDate",
          "type": "uint256"
        },
        {
          "internalType": "bool",
          "name": "isActive",
          "type": "bool"
        }
      ],
      "stateMutability": "view",
      "type": "function"
    },
    {
      "inputs": [
        {
          "internalType": "address",
          "name": "vault",
          "type": "address"
        },
        {
          "internalType": "address",
          "name": "wallet",
          "type": "address"
        }
      ],
      "name": "getContributor",
      "outputs": [
        {
          "components": [
            {
              "internalType": "string",
              "name": "name",
              "type": "string"
            },
            {
              "internalType": "string",
              "name": "role",
              "type": "string"
            },
            {
              "internalType": "address",
              "name": "wallet",
              "type": "address"
            },
            {
              "internalType": "uint256",
              "name": "monthlyAllocation",
              "type": "uint256"
            },
            {
              "internalType": "uint256",
              "name": "totalEarned",
              "type": "uint256"
            },
            {
              "internalType": "uint256",
              "name": "joinDate",
              "type": "uint256"
            },
            {
              "internalType": "bool",
              "name": "isActive",
              "type": "bool"
            }
          ],
          "internalType": "struct ContributorRegistry.Contributor",
          "name": "contributor",
          "type": "tuple"
        }
      ],
      "stateMutability": "view",
      "type": "function"
    },
    {
      "inputs": [
        {
          "internalType": "address",
          "name": "vault",
          "type": "address"
        }
      ],
      "name": "getTotalMonthlyAllocation",
      "outputs": [
        {
          "internalType": "uint256",
          "name": "total",
          "type": "uint256"
        }
      ],
      "stateMutability": "view",
      "type": "function"
    },
    {
      "inputs": [
        {
          "internalType": "address",
          "name": "vault",
          "type": "address"
        }
      ],
      "name": "getVaultContributors",
      "outputs": [
        {
          "internalType": "address[]",
          "name": "wallets",
          "type": "address[]"
        },
        {
          "components": [
            {
              "internalType": "string",
              "name": "name",
              "type": "string"
            },
            {
              "internalType": "string",
              "name": "role",
              "type": "string"
            },
            {
              "internalType": "address",
              "name": "wallet",
              "type": "address"
            },
            {
              "internalType": "uint256",
              "name": "monthlyAllocation",
              "type": "uint256"
            },
            {
              "internalType": "uint256",
              "name": "totalEarned",
              "type": "uint256"
            },
            {
              "internalType": "uint256",
              "name": "joinDate",
              "type": "uint256"
            },
            {
              "internalType": "bool",
              "name": "isActive",
              "type": "bool"
            }
          ],
          "internalType": "struct ContributorRegistry.Contributor[]",
          "name": "contributorData",
          "type": "tuple[]"
        }
      ],
      "stateMutability": "view",
      "type": "function"
    },
    {
      "inputs": [],
      "name": "owner",
      "outputs": [
        {
          "internalType": "address",
          "name": "",
          "type": "address"
        }
      ],
      "stateMutability": "view",
      "type": "function"
    },
    {
      "inputs": [
        {
          "internalType": "address",
          "name": "vault",
          "type": "address"
        },
        {
          "internalType": "address",
          "name": "wallet",
          "type": "address"
        }
      ],
      "name": "removeContributor",
      "outputs": [],
      "stateMutability": "nonpayable",
      "type": "function"
    },
    {
      "inputs": [],
      "name": "renounceOwnership",
      "outputs": [],
      "stateMutability": "nonpayable",
      "type": "function"
    },
    {
      "inputs": [
        {
          "internalType": "address",
          "name": "newOwner",
          "type": "address"
        }
      ],
      "name": "transferOwnership",
      "outputs": [],
      "stateMutability": "nonpayable",
      "type": "function"
    },
    {
      "inputs": [
        {
          "internalType": "address",
          "name": "vault",
          "type": "address"
        },
        {
          "internalType": "address",
          "name": "wallet",
          "type": "address"
        },
        {
          "internalType": "uint256",
          "name": "newAllocation",
          "type": "uint256"
        }
      ],
      "name": "updateContributorAllocation",
      "outputs": [],
      "stateMutability": "nonpayable",
      "type": "function"
    },
    {
      "inputs": [
        {
          "internalType": "address",
          "name": "vault",
          "type": "address"
        },
        {
          "internalType": "address",
          "name": "wallet",
          "type": "address"
        },
        {
          "internalType": "uint256",
          "name": "amount",
          "type": "uint256"
        }
      ],
      "name": "updateEarnings",
      "outputs": [],
      "stateMutability": "nonpayable",
      "type": "function"
    },
    {
      "inputs": [
        {
          "internalType": "address",
          "name": "",
          "type": "address"
        }
      ],
      "name": "vaultContributorCount",
      "outputs": [
        {
          "internalType": "uint256",
          "name": "",
          "type": "uint256"
        }
      ],
      "stateMutability": "view",
      "type": "function"
    },
    {
      "inputs": [
        {
          "internalType": "address",
          "name": "",
          "type": "address"
        },
        {
          "internalType": "uint256",
          "name": "",
          "type": "uint256"
        }
      ],
      "name": "vaultContributors",
      "outputs": [
        {
          "internalType": "address",
          "name": "",
          "type": "address"
        }
      ],
      "stateMutability": "view",
      "type": "function"
    }
  ],
  "bytecode": "0x608060405234801561001057600080fd5b5060405162001ab338038062001ab3833981016040819052610031916100c4565b806001600160a01b03811661006057604051631e4fbdf760e01b81526000600482015260240160405180910390fd5b61006981610074565b5050600180556100f4565b600080546001600160a01b038381166001600160a01b0319831681178455604051919092169283917f8be0079c531659141344cd1fd0a4f28419497f9722a3daafe3b4186f6b6457e09190a35050565b6000602082840312156100d657600080fd5b81516001600160a01b03811681146100ed57600080fd5b9392505050565b6119af80620001046000396000f3fe608060405234801561001057600080fd5b50600436106100cf5760003560e01c80638c7ae4421161008c578063ae7cadf611610066578063ae7cadf6146101b1578063f2fde38b146101df578063f49e7343146101f2578063fd51df181461020557600080fd5b80638c7ae4421461015a5780638da5cb5b146101805780639e2883741461019157600080fd5b80630ca44569146100d45780632ed4434e146100e95780632f0c34ab146100fc5780634a0050be1461010f578063715018a6146101225780637d983e9c1461012a575b600080fd5b6100e76100e236600461128f565b610226565b005b6100e76100f73660046112cb565b610348565b6100e761010a3660046113a1565b610577565b6100e761011d36600461128f565b6107db565b6100e76108d8565b61013d61013836600461142e565b6108ec565b6040516001600160a01b0390911681526020015b60405180910390f35b61016d6101683660046112cb565b610924565b604051610151979695949392919061149e565b6000546001600160a01b031661013d565b6101a461019f3660046112cb565b610a87565b6040516101519190611570565b6101d16101bf36600461158a565b60046020526000908152604090205481565b604051908152602001610151565b6100e76101ed36600461158a565b610c2c565b6101d161020036600461158a565b610c6a565b61021861021336600461158a565b610edb565b6040516101519291906115a5565b61022e6111ae565b6001600160a01b03831661025d5760405162461bcd60e51b815260040161025490611646565b60405180910390fd5b6001600160a01b0382166102835760405162461bcd60e51b815260040161025490611688565b600081116102a35760405162461bcd60e51b8152600401610254906116cb565b6001600160a01b038084166000908152600260209081526040808320938616835292905220600681015460ff166102ec5760405162461bcd60e51b815260040161025490611716565b818160030181905550826001600160a01b0316846001600160a01b03167f285705d2101031f5d578e62f49d0cdffddc66304af1f580c4b53442de60b640b8460405161033a91815260200190565b60405180910390a350505050565b6103506111ae565b6001600160a01b0382166103765760405162461bcd60e51b815260040161025490611646565b6001600160a01b03811661039c5760405162461bcd60e51b815260040161025490611688565b6001600160a01b038083166000908152600260209081526040808320938516835292905220600681015460ff166103e55760405162461bcd60e51b815260040161025490611716565b60068101805460ff191690556001600160a01b0383166000908152600360205260408120905b815481101561053057836001600160a01b031682828154811061043057610430611760565b6000918252602090912001546001600160a01b031603610528578154829061045a9060019061178c565b8154811061046a5761046a611760565b9060005260206000200160009054906101000a90046001600160a01b031682828154811061049a5761049a611760565b9060005260206000200160006101000a8154816001600160a01b0302191690836001600160a01b03160217905550818054806104d8576104d861179f565b60008281526020808220830160001990810180546001600160a01b03191690559092019092556001600160a01b0387168252600490526040812080549161051e836117b5565b9190505550610530565b60010161040b565b50826001600160a01b0316846001600160a01b03167fdfe811a95bef48e76e32818e44c91bba06027b310506108346fb435afcb93e0660405160405180910390a350505050565b61057f6111ae565b6001600160a01b0385166105a55760405162461bcd60e51b815260040161025490611646565b6001600160a01b0384166105cb5760405162461bcd60e51b815260040161025490611688565b60008351116106275760405162461bcd60e51b815260206004820152602260248201527f436f6e7472696275746f7252656769737472793a206e616d6520726571756972604482015261195960f21b6064820152608401610254565b600081116106475760405162461bcd60e51b8152600401610254906116cb565b6001600160a01b038086166000908152600260209081526040808320938816835292905220600681015460ff16156106d95760405162461bcd60e51b815260206004820152602f60248201527f436f6e7472696275746f7252656769737472793a20636f6e7472696275746f7260448201526e20616c72656164792065786973747360881b6064820152608401610254565b806106e48582611857565b50600181016106f38482611857565b506002810180546001600160a01b038088166001600160a01b0319928316811790935560038085018690556000600480870182905542600588015560068701805460ff19166001908117909155938c1680835260209384526040808420805496870181558452848420909501805490961690961790945593845291909152812080549161077f83611917565b9190505550846001600160a01b0316866001600160a01b03167f90026666f12800264ca5ed7f2c4ba17f8254290293459fda7949fc1de3b410268686866040516107cb93929190611930565b60405180910390a3505050505050565b6107e36111ae565b6001600160a01b0383166108095760405162461bcd60e51b815260040161025490611646565b6001600160a01b03821661082f5760405162461bcd60e51b815260040161025490611688565b6001600160a01b038084166000908152600260209081526040808320938616835292905220600681015460ff166108785760405162461bcd60e51b815260040161025490611716565b8181600401600082825461088c9190611966565b92505081905550826001600160a01b0316846001600160a01b03167fe316f88e9f5147c7217f4908869b81799017a1931eed14f8a157a6aede1668648460405161033a91815260200190565b6108e06111ae565b6108ea60006111db565b565b6003602052816000526040600020818154811061090857600080fd5b6000918252602090912001546001600160a01b03169150829050565b600260209081526000928352604080842090915290825290208054819061094a906117cc565b80601f0160208091040260200160405190810160405280929190818152602001828054610976906117cc565b80156109c35780601f10610998576101008083540402835291602001916109c3565b820191906000526020600020905b8154815290600101906020018083116109a657829003601f168201915b5050505050908060010180546109d8906117cc565b80601f0160208091040260200160405190810160405280929190818152602001828054610a04906117cc565b8015610a515780601f10610a2657610100808354040283529160200191610a51565b820191906000526020600020905b815481529060010190602001808311610a3457829003601f168201915b505050600284015460038501546004860154600587015460069097015495966001600160a01b0390931695919450925060ff1687565b610a8f61122b565b6001600160a01b0380841660009081526002602090815260408083209386168352929052819020815160e08101909252805482908290610ace906117cc565b80601f0160208091040260200160405190810160405280929190818152602001828054610afa906117cc565b8015610b475780601f10610b1c57610100808354040283529160200191610b47565b820191906000526020600020905b815481529060010190602001808311610b2a57829003601f168201915b50505050508152602001600182018054610b60906117cc565b80601f0160208091040260200160405190810160405280929190818152602001828054610b8c906117cc565b8015610bd95780601f10610bae57610100808354040283529160200191610bd9565b820191906000526020600020905b815481529060010190602001808311610bbc57829003601f168201915b505050918352505060028201546001600160a01b0316602082015260038201546040820152600482015460608201526005820154608082015260069091015460ff16151560a09091015290505b92915050565b610c346111ae565b6001600160a01b038116610c5e57604051631e4fbdf760e01b815260006004820152602401610254565b610c67816111db565b50565b6001600160a01b038116600090815260036020908152604080832080548251818502810185019093528083528493830182828015610cd157602002820191906000526020600020905b81546001600160a01b03168152600190910190602001808311610cb3575b505050505090506000805b8251811015610ed3576001600160a01b038516600090815260026020526040812084518290869085908110610d1357610d13611760565b60200260200101516001600160a01b03166001600160a01b031681526020019081526020016000206040518060e0016040529081600082018054610d56906117cc565b80601f0160208091040260200160405190810160405280929190818152602001828054610d82906117cc565b8015610dcf5780601f10610da457610100808354040283529160200191610dcf565b820191906000526020600020905b815481529060010190602001808311610db257829003601f168201915b50505050508152602001600182018054610de8906117cc565b80601f0160208091040260200160405190810160405280929190818152602001828054610e14906117cc565b8015610e615780601f10610e3657610100808354040283529160200191610e61565b820191906000526020600020905b815481529060010190602001808311610e4457829003601f168201915b505050918352505060028201546001600160a01b0316602082015260038201546040820152600482015460608201526005820154608082015260069091015460ff16151560a09091015260c081015190915015610eca576060810151610ec79084611966565b92505b50600101610cdc565b509392505050565b6001600160a01b0381166000908152600360209081526040808320805482518185028101850190935280835260609485949093929190830182828015610f4a57602002820191906000526020600020905b81546001600160a01b03168152600190910190602001808311610f2c575b505050505090506000815167ffffffffffffffff811115610f6d57610f6d6112fe565b604051908082528060200260200182016040528015610fa657816020015b610f9361122b565b815260200190600190039081610f8b5790505b50905060005b82518110156111a3576001600160a01b03861660009081526002602052604081208451909190859084908110610fe457610fe4611760565b60200260200101516001600160a01b03166001600160a01b031681526020019081526020016000206040518060e0016040529081600082018054611027906117cc565b80601f0160208091040260200160405190810160405280929190818152602001828054611053906117cc565b80156110a05780601f10611075576101008083540402835291602001916110a0565b820191906000526020600020905b81548152906001019060200180831161108357829003601f168201915b505050505081526020016001820180546110b9906117cc565b80601f01602080910402602001604051908101604052809291908181526020018280546110e5906117cc565b80156111325780601f1061110757610100808354040283529160200191611132565b820191906000526020600020905b81548152906001019060200180831161111557829003601f168201915b505050918352505060028201546001600160a01b0316602082015260038201546040820152600482015460608201526005820154608082015260069091015460ff16151560a090910152825183908390811061119057611190611760565b6020908102919091010152600101610fac565b509094909350915050565b6000546001600160a01b031633146108ea5760405163118cdaa760e01b8152336004820152602401610254565b600080546001600160a01b038381166001600160a01b0319831681178455604051919092169283917f8be0079c531659141344cd1fd0a4f28419497f9722a3daafe3b4186f6b6457e09190a35050565b6040518060e00160405280606081526020016060815260200160006001600160a01b031681526020016000815260200160008152602001600081526020016000151581525090565b80356001600160a01b038116811461128a57600080fd5b919050565b6000806000606084860312156112a457600080fd5b6112ad84611273565b92506112bb60208501611273565b9150604084013590509250925092565b600080604083850312156112de57600080fd5b6112e783611273565b91506112f560208401611273565b90509250929050565b634e487b7160e01b600052604160045260246000fd5b600082601f83011261132557600080fd5b813567ffffffffffffffff80821115611340576113406112fe565b604051601f8301601f19908116603f01168101908282118183101715611368576113686112fe565b8160405283815286602085880101111561138157600080fd5b836020870160208301376000602085830101528094505050505092915050565b600080600080600060a086880312156113b957600080fd5b6113c286611273565b94506113d060208701611273565b9350604086013567ffffffffffffffff808211156113ed57600080fd5b6113f989838a01611314565b9450606088013591508082111561140f57600080fd5b5061141c88828901611314565b95989497509295608001359392505050565b6000806040838503121561144157600080fd5b61144a83611273565b946020939093013593505050565b6000815180845260005b8181101561147e57602081850181015186830182015201611462565b506000602082860101526020601f19601f83011685010191505092915050565b60e0815260006114b160e083018a611458565b82810360208401526114c3818a611458565b6001600160a01b0398909816604084015250506060810194909452608084019290925260a0830152151560c09091015292915050565b6000815160e0845261150e60e0850182611458565b9050602083015184820360208601526115278282611458565b91505060018060a01b036040840151166040850152606083015160608501526080830151608085015260a083015160a085015260c0830151151560c08501528091505092915050565b60208152600061158360208301846114f9565b9392505050565b60006020828403121561159c57600080fd5b61158382611273565b604080825283519082018190526000906020906060840190828701845b828110156115e75781516001600160a01b0316845292840192908401906001016115c2565b50505083810382850152845180825282820190600581901b8301840187850160005b8381101561163757601f198684030185526116258383516114f9565b94870194925090860190600101611609565b50909998505050505050505050565b60208082526022908201527f436f6e7472696275746f7252656769737472793a20696e76616c6964207661756040820152611b1d60f21b606082015260800190565b60208082526023908201527f436f6e7472696275746f7252656769737472793a20696e76616c69642077616c6040820152621b195d60ea1b606082015260800190565b6020808252602b908201527f436f6e7472696275746f7252656769737472793a20616c6c6f636174696f6e2060408201526a06d757374206265203e20360ac1b606082015260800190565b6020808252602a908201527f436f6e7472696275746f7252656769737472793a20636f6e7472696275746f72604082015269081b9bdd08199bdd5b9960b21b606082015260800190565b634e487b7160e01b600052603260045260246000fd5b634e487b7160e01b600052601160045260246000fd5b81810381811115610c2657610c26611776565b634e487b7160e01b600052603160045260246000fd5b6000816117c4576117c4611776565b506000190190565b600181811c908216806117e057607f821691505b60208210810361180057634e487b7160e01b600052602260045260246000fd5b50919050565b601f821115611852576000816000526020600020601f850160051c8101602086101561182f5750805b601f850160051c820191505b8181101561184e5782815560010161183b565b5050505b505050565b815167ffffffffffffffff811115611871576118716112fe565b6118858161187f84546117cc565b84611806565b602080601f8311600181146118ba57600084156118a25750858301515b600019600386901b1c1916600185901b17855561184e565b600085815260208120601f198616915b828110156118e9578886015182559484019460019091019084016118ca565b50858210156119075787850151600019600388901b60f8161c191681555b5050505050600190811b01905550565b60006001820161192957611929611776565b5060010190565b6060815260006119436060830186611458565b82810360208401526119558186611458565b915050826040830152949350505050565b80820180821115610c2657610c2661177656fea26469706673582212201904b51b73071aaee30215f7772ad6909d85c6c188645cee01b7b76e2dc236ff64736f6c63430008170033",
  "linkReferences": {},
  "deployedLinkReferences": {}
}