{
  "_format": "hh-sol-artifact-1",
  "contractName": "Distribution",
  "sourceName": "contracts/Distribution.sol",
  "abi": [
    {
      "inputs": [
        {
          "internalType": "address",
          "name": "owner",
          "type": "address"
        },
        {
          "internalType": "address",
          "name": "registry",
          "type": "address"
        },
        {
          "internalType": "uint256",
          "name": "reservedBps",
          "type": "uint256"
        }
      ],
      "stateMutability": "nonpayable",
      "type": "constructor"
    },
    {
      "inputs": [
        {
          "internalType": "address",
          "name": "owner",
          "type": "address"
        }
      ],
      "name": "OwnableInvalidOwner",
      "type": "error"
    },
    {
      "inputs": [
        {
          "internalType": "address",
          "name": "account",
          "type": "address"
        }
      ],
      "name": "OwnableUnauthorizedAccount",
      "type": "error"
    },
    {
      "inputs": [],
      "name": "ReentrancyGuardReentrantCall",
      "type": "error"
    },
    {
      "anonymous": false,
      "inputs": [
        {
          "indexed": true,
          "internalType": "uint256",
          "name": "scheduleId",
          "type": "uint256"
        },
        {
          "indexed": true,
          "internalType": "address",
          "name": "vault",
          "type": "address"
        },
        {
          "indexed": false,
          "internalType": "uint256",
          "name": "totalAmount",
          "type": "uint256"
        },
        {
          "indexed": false,
          "internalType": "uint256",
          "name": "recipientCount",
          "type": "uint256"
        }
      ],
      "name": "DistributionExecuted",
      "type": "event"
    },
    {
      "anonymous": false,
      "inputs": [
        {
          "indexed": true,
          "internalType": "uint256",
          "name": "scheduleId",
          "type": "uint256"
        },
        {
          "indexed": true,
          "internalType": "address",
          "name": "vault",
          "type": "address"
        },
        {
          "indexed": false,
          "internalType": "uint256",
          "name": "scheduledTime",
          "type": "uint256"
        },
        {
          "indexed": false,
          "internalType": "enum Distribution.DistributionMethod",
          "name": "method",
          "type": "uint8"
        }
      ],
      "name": "DistributionScheduled",
      "type": "event"
    },
    {
      "anonymous": false,
      "inputs": [
        {
          "indexed": true,
          "internalType": "address",
          "name": "previousOwner",
          "type": "address"
        },
        {
          "indexed": true,
          "internalType": "address",
          "name": "newOwner",
          "type": "address"
        }
      ],
      "name": "OwnershipTransferred",
      "type": "event"
    },
    {
      "inputs": [],
      "name": "contributorRegistry",
      "outputs": [
        {
          "internalType": "contract ContributorRegistry",
          "name": "",
          "type": "address"
        }
      ],
      "stateMutability": "view",
      "type": "function"
    },
    {
      "inputs": [
        {
          "internalType": "uint256",
          "name": "scheduleId",
          "type": "uint256"
        }
      ],
      "name": "executeDistribution",
      "outputs": [],
      "stateMutability": "nonpayable",
      "type": "function"
    },
    {
      "inputs": [],
      "name": "getAllScheduleIds",
      "outputs": [
        {
          "internalType": "uint256[]",
          "name": "ids",
          "type": "uint256[]"
        }
      ],
      "stateMutability": "view",
      "type": "function"
    },
    {
      "inputs": [
        {
          "internalType": "uint256",
          "name": "scheduleId",
          "type": "uint256"
        }
      ],
      "name": "getSchedule",
      "outputs": [
        {
          "components": [
            {
              "internalType": "address",
              "name": "vault",
              "type": "address"
            },
            {
              "internalType": "uint256",
              "name": "scheduledTime",
              "type": "uint256"
            },
            {
              "internalType": "uint256",
              "name": "distributionAmount",
              "type": "uint256"
            },
            {
              "internalType": "address[]",
              "name": "recipients",
              "type": "address[]"
            },
            {
              "internalType": "uint256[]",
              "name": "amounts",
              "type": "uint256[]"
            },
            {
              "internalType": "enum Distribution.DistributionMethod",
              "name": "method",
              "type": "uint8"
            },
            {
              "internalType": "bool",
              "name": "isExecuted",
              "type": "bool"
            },
            {
              "internalType": "uint256",
              "name": "executionTime",
              "type": "uint256"
            },
            {
              "internalType": "bytes32",
              "name": "txHash",
              "type": "bytes32"
            }
          ],
          "internalType": "struct Distribution.DistributionSchedule",
          "name": "schedule",
          "type": "tuple"
        }
      ],
      "stateMutability": "view",
      "type": "function"
    },
    {
      "inputs": [],
      "name": "nextScheduleId",
      "outputs": [
        {
          "internalType": "uint256",
          "name": "",
          "type": "uint256"
        }
      ],
      "stateMutability": "view",
      "type": "function"
    },
    {
      "inputs": [],
      "name": "owner",
      "outputs": [
        {
          "internalType": "address",
          "name": "",
          "type": "address"
        }
      ],
      "stateMutability": "view",
      "type": "function"
    },
    {
      "inputs": [],
      "name": "renounceOwnership",
      "outputs": [],
      "stateMutability": "nonpayable",
      "type": "function"
    },
    {
      "inputs": [],
      "name": "reservedFundsBps",
      "outputs": [
        {
          "internalType": "uint256",
          "name": "",
          "type": "uint256"
        }
      ],
      "stateMutability": "view",
      "type": "function"
    },
    {
      "inputs": [
        {
          "internalType": "address",
          "name": "vault",
          "type": "address"
        },
        {
          "internalType": "uint256",
          "name": "scheduledTime",
          "type": "uint256"
        },
        {
          "internalType": "enum Distribution.DistributionMethod",
          "name": "method",
          "type": "uint8"
        }
      ],
      "name": "scheduleDistribution",
      "outputs": [
        {
          "internalType": "uint256",
          "name": "scheduleId",
          "type": "uint256"
        }
      ],
      "stateMutability": "nonpayable",
      "type": "function"
    },
    {
      "inputs": [
        {
          "internalType": "uint256",
          "name": "",
          "type": "uint256"
        }
      ],
      "name": "scheduleIds",
      "outputs": [
        {
          "internalType": "uint256",
          "name": "",
          "type": "uint256"
        }
      ],
      "stateMutability": "view",
      "type": "function"
    },
    {
      "inputs": [
        {
          "internalType": "uint256",
          "name": "",
          "type": "uint256"
        }
      ],
      "name": "schedules",
      "outputs": [
        {
          "internalType": "address",
          "name": "vault",
          "type": "address"
        },
        {
          "internalType": "uint256",
          "name": "scheduledTime",
          "type": "uint256"
        },
        {
          "internalType": "uint256",
          "name": "distributionAmount",
          "type": "uint256"
        },
        {
          "internalType": "enum Distribution.DistributionMethod",
          "name": "method",
          "type": "uint8"
        },
        {
          "internalType": "bool",
          "name": "isExecuted",
          "type": "bool"
        },
        {
          "internalType": "uint256",
          "name": "executionTime",
          "type": "uint256"
        },
        {
          "internalType": "bytes32",
          "name": "txHash",
          "type": "bytes32"
        }
      ],
      "stateMutability": "view",
      "type": "function"
    },
    {
      "inputs": [
        {
          "internalType": "uint256",
          "name": "newBps",
          "type": "uint256"
        }
      ],
      "name": "setReservedFundsBps",
      "outputs": [],
      "stateMutability": "nonpayable",
      "type": "function"
    },
    {
      "inputs": [
        {
          "internalType": "address",
          "name": "newOwner",
          "type": "address"
        }
      ],
      "name": "transferOwnership",
      "outputs": [],
      "stateMutability": "nonpayable",
      "type": "function"
    }
  ],
  "bytecode": "0x60806040523480156200001157600080fd5b5060405162001b1938038062001b19833981016040819052620000349162000110565b826001600160a01b0381166200006457604051631e4fbdf760e01b81526000600482015260240160405180910390fd5b6200006f81620000a3565b506001808055600580546001600160a01b0319166001600160a01b0394909416939093179092556006556004555062000151565b600080546001600160a01b038381166001600160a01b0319831681178455604051919092169283917f8be0079c531659141344cd1fd0a4f28419497f9722a3daafe3b4186f6b6457e09190a35050565b80516001600160a01b03811681146200010b57600080fd5b919050565b6000806000606084860312156200012657600080fd5b6200013184620000f3565b92506200014160208501620000f3565b9150604084015190509250925092565b6119b880620001616000396000f3fe608060405234801561001057600080fd5b50600436106100cf5760003560e01c80638da5cb5b1161008c578063c5ca93a711610066578063c5ca93a7146101e8578063d6ec9f0914610208578063f2fde38b1461021b578063f621ce9d1461022e57600080fd5b80638da5cb5b14610160578063ab4c365b14610171578063bdc6d9ab1461017a57600080fd5b806304ba8f4b146100d45780630f038d41146100fa57806324d9868814610103578063318536bd146101185780636334334614610143578063715018a614610158575b600080fd5b6100e76100e23660046112f7565b610241565b6040519081526020015b60405180910390f35b6100e760045481565b61011661011136600461133d565b610540565b005b60055461012b906001600160a01b031681565b6040516001600160a01b0390911681526020016100f1565b61014b610e94565b6040516100f19190611392565b610116610eec565b6000546001600160a01b031661012b565b6100e760065481565b6101d561018836600461133d565b60026020819052600091825260409091208054600182015492820154600583015460068401546007909401546001600160a01b039093169493919260ff8083169361010090930416919087565b6040516100f197969594939291906113dd565b6101fb6101f636600461133d565b610f00565b6040516100f19190611460565b61011661021636600461133d565b61105a565b61011661022936600461150d565b6110c4565b6100e761023c36600461133d565b6110ff565b600061024b611120565b6001600160a01b0384166102a65760405162461bcd60e51b815260206004820152601b60248201527f446973747269627574696f6e3a20696e76616c6964207661756c74000000000060448201526064015b60405180910390fd5b42831161030c5760405162461bcd60e51b815260206004820152602e60248201527f446973747269627574696f6e3a207363686564756c65642074696d65206d757360448201526d7420626520696e2066757475726560901b606482015260840161029d565b6004805490600061031c83611540565b919050559050604051806101200160405280856001600160a01b0316815260200184815260200160008152602001600067ffffffffffffffff81111561036457610364611559565b60405190808252806020026020018201604052801561038d578160200160208202803683370190505b50815260200160006040519080825280602002602001820160405280156103be578160200160208202803683370190505b5081526020018360028111156103d6576103d66113a5565b81526000602080830182905260408084018390526060938401839052858352600280835292819020855181546001600160a01b0319166001600160a01b0390911617815585830151600182015590850151928101929092559183015180519192610448926003850192909101906111c7565b506080820151805161046491600484019160209091019061122c565b5060a082015160058201805460ff19166001836002811115610488576104886113a5565b021790555060c082015160058201805461ff001916610100921515830217905560e0830151600683015590910151600790910155600380546001810182556000919091527fc2575a0e9e593c00f959f8c92f12db2869c3395a3b0502d05e2516446f71f85b018190556040516001600160a01b0385169082907fa3f7efa963b2387e3829b38a4151d196dc1a7700f2173bc602674078a64bddac90610530908790879061156f565b60405180910390a35b9392505050565b61054861114d565b60008181526002602052604090206005810154610100900460ff16156105b05760405162461bcd60e51b815260206004820152601e60248201527f446973747269627574696f6e3a20616c72656164792065786563757465640000604482015260640161029d565b80600101544210156106045760405162461bcd60e51b815260206004820152601a60248201527f446973747269627574696f6e3a206e6f74207965742074696d65000000000000604482015260640161029d565b8054604080516278744560e21b815290516001600160a01b039092169160009183916301e1d114916004808201926020929091908290030181865afa158015610651573d6000803e3d6000fd5b505050506040513d601f19601f820116820180604052508101906106759190611583565b9050600081116106d15760405162461bcd60e51b815260206004820152602160248201527f446973747269627574696f6e3a207661756c7420686173206e6f2061737365746044820152607360f81b606482015260840161029d565b6000612710600654836106e4919061159c565b6106ee91906115b9565b905060006106fc82846115db565b6005548654604051631faa3be360e31b81526001600160a01b0391821660048201529293506000928392919091169063fd51df1890602401600060405180830381865afa158015610751573d6000803e3d6000fd5b505050506040513d6000823e601f3d908101601f191682016040526107799190810190611846565b9150915060008251116107ce5760405162461bcd60e51b815260206004820152601d60248201527f446973747269627574696f6e3a206e6f20636f6e7472696275746f7273000000604482015260640161029d565b6000825167ffffffffffffffff8111156107ea576107ea611559565b604051908082528060200260200182016040528015610813578160200160208202803683370190505b5090506000835167ffffffffffffffff81111561083257610832611559565b60405190808252806020026020018201604052801561085b578160200160208202803683370190505b509050600060058a015460ff166002811115610879576108796113a5565b03610a2157600554895460405163f49e734360e01b81526001600160a01b039182166004820152600092919091169063f49e734390602401602060405180830381865afa1580156108ce573d6000803e3d6000fd5b505050506040513d601f19601f820116820180604052508101906108f29190611583565b9050600081116109445760405162461bcd60e51b815260206004820152601c60248201527f446973747269627574696f6e3a206e6f20616c6c6f636174696f6e7300000000604482015260640161029d565b60005b8551811015610a1a578481815181106109625761096261190b565b602002602001015160c0015115610a12578581815181106109855761098561190b565b602002602001015184828151811061099f5761099f61190b565b60200260200101906001600160a01b031690816001600160a01b031681525050818582815181106109d2576109d261190b565b602002602001015160600151886109e9919061159c565b6109f391906115b9565b838281518110610a0557610a0561190b565b6020026020010181815250505b600101610947565b5050610c59565b600160058a015460ff166002811115610a3c57610a3c6113a5565b03610b4f576000805b8551811015610a8757848181518110610a6057610a6061190b565b602002602001015160c0015115610a7f5781610a7b81611540565b9250505b600101610a45565b506000610a9482886115b9565b90506000805b8751811015610b4657868181518110610ab557610ab561190b565b602002602001015160c0015115610b3e57878181518110610ad857610ad861190b565b6020026020010151868381518110610af257610af261190b565b60200260200101906001600160a01b031690816001600160a01b03168152505082858381518110610b2557610b2561190b565b602090810291909101015281610b3a81611540565b9250505b600101610a9a565b50505050610c59565b6000805b8551811015610b9557848181518110610b6e57610b6e61190b565b602002602001015160c0015115610b8d5781610b8981611540565b9250505b600101610b53565b506000610ba282886115b9565b90506000805b8751811015610c5457868181518110610bc357610bc361190b565b602002602001015160c0015115610c4c57878181518110610be657610be661190b565b6020026020010151868381518110610c0057610c0061190b565b60200260200101906001600160a01b031690816001600160a01b03168152505082858381518110610c3357610c3361190b565b602090810291909101015281610c4881611540565b9250505b600101610ba8565b505050505b60405163ad8bc26b60e01b81526001600160a01b0389169063ad8bc26b90610c879085908590600401611921565b600060405180830381600087803b158015610ca157600080fd5b505af1158015610cb5573d6000803e3d6000fd5b50505050600289018590558151610cd59060038b019060208501906111c7565b508051610ceb9060048b0190602084019061122c565b5060058901805461ff0019166101001790554260068a01819055604051610d2091908c90602001918252602082015260400190565b60408051601f19818403018152919052805160209091012060078a015560005b8251811015610e2d576000828281518110610d5d57610d5d61190b565b60200260200101511115610e25576005548a5484516001600160a01b0392831692634a0050be921690869085908110610d9857610d9861190b565b6020026020010151858581518110610db257610db261190b565b60209081029190910101516040516001600160e01b031960e086901b1681526001600160a01b0393841660048201529290911660248301526044820152606401600060405180830381600087803b158015610e0c57600080fd5b505af1158015610e20573d6000803e3d6000fd5b505050505b600101610d40565b50885482516040516001600160a01b03909216918c917f603bc5965c10a30223f640183c8a07dd53af7e5f7e1e410f1e36be737fa15efa91610e77918a8252602082015260400190565b60405180910390a3505050505050505050610e9160018055565b50565b60606003805480602002602001604051908101604052809291908181526020018280548015610ee257602002820191906000526020600020905b815481526020019060010190808311610ece575b5050505050905090565b610ef4611120565b610efe6000611177565b565b610f08611267565b60008281526002602081815260409283902083516101208101855281546001600160a01b031681526001820154818401529281015483850152600381018054855181850281018501909652808652939491936060860193830182828015610f9857602002820191906000526020600020905b81546001600160a01b03168152600190910190602001808311610f7a575b5050505050815260200160048201805480602002602001604051908101604052809291908181526020018280548015610ff057602002820191906000526020600020905b815481526020019060010190808311610fdc575b5050509183525050600582015460209091019060ff166002811115611017576110176113a5565b6002811115611028576110286113a5565b81526005820154610100900460ff16151560208201526006820154604082015260079091015460609091015292915050565b611062611120565b6127108111156110bf5760405162461bcd60e51b815260206004820152602260248201527f446973747269627574696f6e3a20627073206d757374206265203c3d20313030604482015261030360f41b606482015260840161029d565b600655565b6110cc611120565b6001600160a01b0381166110f657604051631e4fbdf760e01b81526000600482015260240161029d565b610e9181611177565b6003818154811061110f57600080fd5b600091825260209091200154905081565b6000546001600160a01b03163314610efe5760405163118cdaa760e01b815233600482015260240161029d565b60026001540361117057604051633ee5aeb560e01b815260040160405180910390fd5b6002600155565b600080546001600160a01b038381166001600160a01b0319831681178455604051919092169283917f8be0079c531659141344cd1fd0a4f28419497f9722a3daafe3b4186f6b6457e09190a35050565b82805482825590600052602060002090810192821561121c579160200282015b8281111561121c57825182546001600160a01b0319166001600160a01b039091161782556020909201916001909101906111e7565b506112289291506112cd565b5090565b82805482825590600052602060002090810192821561121c579160200282015b8281111561121c57825182559160200191906001019061124c565b60405180610120016040528060006001600160a01b0316815260200160008152602001600081526020016060815260200160608152602001600060028111156112b2576112b26113a5565b81526000602082018190526040820181905260609091015290565b5b8082111561122857600081556001016112ce565b6001600160a01b0381168114610e9157600080fd5b60008060006060848603121561130c57600080fd5b8335611317816112e2565b92506020840135915060408401356003811061133257600080fd5b809150509250925092565b60006020828403121561134f57600080fd5b5035919050565b60008151808452602080850194506020840160005b838110156113875781518752958201959082019060010161136b565b509495945050505050565b6020815260006105396020830184611356565b634e487b7160e01b600052602160045260246000fd5b600381106113d957634e487b7160e01b600052602160045260246000fd5b9052565b6001600160a01b0388168152602081018790526040810186905260e0810161140860608301876113bb565b931515608082015260a081019290925260c090910152949350505050565b60008151808452602080850194506020840160005b838110156113875781516001600160a01b03168752958201959082019060010161143b565b6020815261147a6020820183516001600160a01b03169052565b6020820151604082015260408201516060820152600060608301516101208060808501526114ac610140850183611426565b91506080850151601f198584030160a08601526114c98382611356565b92505060a08501516114de60c08601826113bb565b5060c085015180151560e08601525060e085015161010085810191909152909401519390920192909252919050565b60006020828403121561151f57600080fd5b8135610539816112e2565b634e487b7160e01b600052601160045260246000fd5b6000600182016115525761155261152a565b5060010190565b634e487b7160e01b600052604160045260246000fd5b8281526040810161053960208301846113bb565b60006020828403121561159557600080fd5b5051919050565b80820281158282048414176115b3576115b361152a565b92915050565b6000826115d657634e487b7160e01b600052601260045260246000fd5b500490565b818103818111156115b3576115b361152a565b60405160e0810167ffffffffffffffff8111828210171561161157611611611559565b60405290565b604051601f8201601f1916810167ffffffffffffffff8111828210171561164057611640611559565b604052919050565b600067ffffffffffffffff82111561166257611662611559565b5060051b60200190565b8051611677816112e2565b919050565b600082601f83011261168d57600080fd5b815167ffffffffffffffff8111156116a7576116a7611559565b60206116bb601f8301601f19168201611617565b82815285828487010111156116cf57600080fd5b60005b838110156116ed5785810183015182820184015282016116d2565b506000928101909101919091529392505050565b8051801515811461167757600080fd5b600082601f83011261172257600080fd5b8151602061173761173283611648565b611617565b82815260059290921b8401810191818101908684111561175657600080fd5b8286015b8481101561183b57805167ffffffffffffffff8082111561177b5760008081fd5b9088019060e0828b03601f19018113156117955760008081fd5b61179d6115ee565b87840151838111156117af5760008081fd5b6117bd8d8a8388010161167c565b825250604080850151848111156117d45760008081fd5b6117e28e8b8389010161167c565b8a84015250606093506117f684860161166c565b81830152506080808501518483015260a0935083850151818301525060c08085015184830152611827838601611701565b90820152865250505091830191830161175a565b509695505050505050565b6000806040838503121561185957600080fd5b825167ffffffffffffffff8082111561187157600080fd5b818501915085601f83011261188557600080fd5b8151602061189561173283611648565b82815260059290921b840181019181810190898411156118b457600080fd5b948201945b838610156118db5785516118cc816112e2565b825294820194908201906118b9565b918801519196509093505050808211156118f457600080fd5b5061190185828601611711565b9150509250929050565b634e487b7160e01b600052603260045260246000fd5b604080825283519082018190526000906020906060840190828701845b828110156119635781516001600160a01b03168452928401929084019060010161193e565b50505083810360208501526119788186611356565b969550505050505056fea26469706673582212201cd957d5868e03640d8870dbec25f22d13d55ad9f4621f1a04d3fb14275abb8064736f6c63430008170033",
  "linkReferences": {},
  "deployedLinkReferences": {}
}