{
  "_format": "hh-sol-artifact-1",
  "contractName": "QuadraticVoting",
  "sourceName": "contracts/QuadraticVoting.sol",
  "abi": [
    {
      "inputs": [
        {
          "internalType": "address",
          "name": "owner",
          "type": "address"
        },
        {
          "internalType": "address",
          "name": "token",
          "type": "address"
        }
      ],
      "stateMutability": "nonpayable",
      "type": "constructor"
    },
    {
      "inputs": [
        {
          "internalType": "address",
          "name": "owner",
          "type": "address"
        }
      ],
      "name": "OwnableInvalidOwner",
      "type": "error"
    },
    {
      "inputs": [
        {
          "internalType": "address",
          "name": "account",
          "type": "address"
        }
      ],
      "name": "OwnableUnauthorizedAccount",
      "type": "error"
    },
    {
      "inputs": [],
      "name": "ReentrancyGuardReentrantCall",
      "type": "error"
    },
    {
      "anonymous": false,
      "inputs": [
        {
          "indexed": true,
          "internalType": "address",
          "name": "previousOwner",
          "type": "address"
        },
        {
          "indexed": true,
          "internalType": "address",
          "name": "newOwner",
          "type": "address"
        }
      ],
      "name": "OwnershipTransferred",
      "type": "event"
    },
    {
      "anonymous": false,
      "inputs": [
        {
          "indexed": true,
          "internalType": "uint256",
          "name": "votingId",
          "type": "uint256"
        },
        {
          "indexed": true,
          "internalType": "address",
          "name": "voter",
          "type": "address"
        },
        {
          "indexed": false,
          "internalType": "uint256",
          "name": "votes",
          "type": "uint256"
        },
        {
          "indexed": false,
          "internalType": "bool",
          "name": "isFor",
          "type": "bool"
        },
        {
          "indexed": false,
          "internalType": "uint256",
          "name": "cost",
          "type": "uint256"
        }
      ],
      "name": "VoteCast",
      "type": "event"
    },
    {
      "anonymous": false,
      "inputs": [
        {
          "indexed": true,
          "internalType": "uint256",
          "name": "votingId",
          "type": "uint256"
        },
        {
          "indexed": true,
          "internalType": "address",
          "name": "vault",
          "type": "address"
        },
        {
          "indexed": true,
          "internalType": "address",
          "name": "nominee",
          "type": "address"
        },
        {
          "indexed": false,
          "internalType": "string",
          "name": "nomineeName",
          "type": "string"
        },
        {
          "indexed": false,
          "internalType": "uint256",
          "name": "endTime",
          "type": "uint256"
        }
      ],
      "name": "VotingCreated",
      "type": "event"
    },
    {
      "anonymous": false,
      "inputs": [
        {
          "indexed": true,
          "internalType": "uint256",
          "name": "votingId",
          "type": "uint256"
        },
        {
          "indexed": false,
          "internalType": "bool",
          "name": "approved",
          "type": "bool"
        },
        {
          "indexed": false,
          "internalType": "uint256",
          "name": "votesFor",
          "type": "uint256"
        },
        {
          "indexed": false,
          "internalType": "uint256",
          "name": "votesAgainst",
          "type": "uint256"
        }
      ],
      "name": "VotingEnded",
      "type": "event"
    },
    {
      "inputs": [
        {
          "internalType": "uint256",
          "name": "voteCount",
          "type": "uint256"
        }
      ],
      "name": "calculateVoteCost",
      "outputs": [
        {
          "internalType": "uint256",
          "name": "cost",
          "type": "uint256"
        }
      ],
      "stateMutability": "pure",
      "type": "function"
    },
    {
      "inputs": [
        {
          "internalType": "address",
          "name": "vault",
          "type": "address"
        },
        {
          "internalType": "address",
          "name": "nominee",
          "type": "address"
        },
        {
          "internalType": "string",
          "name": "nomineeName",
          "type": "string"
        },
        {
          "internalType": "string",
          "name": "role",
          "type": "string"
        },
        {
          "internalType": "string",
          "name": "description",
          "type": "string"
        },
        {
          "internalType": "uint256",
          "name": "duration",
          "type": "uint256"
        }
      ],
      "name": "createVoting",
      "outputs": [
        {
          "internalType": "uint256",
          "name": "votingId",
          "type": "uint256"
        }
      ],
      "stateMutability": "nonpayable",
      "type": "function"
    },
    {
      "inputs": [],
      "name": "creditToken",
      "outputs": [
        {
          "internalType": "address",
          "name": "",
          "type": "address"
        }
      ],
      "stateMutability": "view",
      "type": "function"
    },
    {
      "inputs": [
        {
          "internalType": "uint256",
          "name": "votingId",
          "type": "uint256"
        }
      ],
      "name": "endVoting",
      "outputs": [],
      "stateMutability": "nonpayable",
      "type": "function"
    },
    {
      "inputs": [],
      "name": "getAllVotingIds",
      "outputs": [
        {
          "internalType": "uint256[]",
          "name": "ids",
          "type": "uint256[]"
        }
      ],
      "stateMutability": "view",
      "type": "function"
    },
    {
      "inputs": [
        {
          "internalType": "uint256",
          "name": "votingId",
          "type": "uint256"
        },
        {
          "internalType": "address",
          "name": "voter",
          "type": "address"
        }
      ],
      "name": "getUserVote",
      "outputs": [
        {
          "components": [
            {
              "internalType": "address",
              "name": "voter",
              "type": "address"
            },
            {
              "internalType": "uint256",
              "name": "votes",
              "type": "uint256"
            },
            {
              "internalType": "bool",
              "name": "isFor",
              "type": "bool"
            },
            {
              "internalType": "uint256",
              "name": "timestamp",
              "type": "uint256"
            }
          ],
          "internalType": "struct QuadraticVoting.Vote",
          "name": "userVote",
          "type": "tuple"
        }
      ],
      "stateMutability": "view",
      "type": "function"
    },
    {
      "inputs": [
        {
          "internalType": "uint256",
          "name": "votingId",
          "type": "uint256"
        }
      ],
      "name": "getVotes",
      "outputs": [
        {
          "components": [
            {
              "internalType": "address",
              "name": "voter",
              "type": "address"
            },
            {
              "internalType": "uint256",
              "name": "votes",
              "type": "uint256"
            },
            {
              "internalType": "bool",
              "name": "isFor",
              "type": "bool"
            },
            {
              "internalType": "uint256",
              "name": "timestamp",
              "type": "uint256"
            }
          ],
          "internalType": "struct QuadraticVoting.Vote[]",
          "name": "voteList",
          "type": "tuple[]"
        }
      ],
      "stateMutability": "view",
      "type": "function"
    },
    {
      "inputs": [
        {
          "internalType": "uint256",
          "name": "votingId",
          "type": "uint256"
        }
      ],
      "name": "getVoting",
      "outputs": [
        {
          "components": [
            {
              "internalType": "address",
              "name": "vault",
              "type": "address"
            },
            {
              "internalType": "address",
              "name": "nominee",
              "type": "address"
            },
            {
              "internalType": "string",
              "name": "nomineeName",
              "type": "string"
            },
            {
              "internalType": "string",
              "name": "role",
              "type": "string"
            },
            {
              "internalType": "string",
              "name": "description",
              "type": "string"
            },
            {
              "internalType": "uint256",
              "name": "startTime",
              "type": "uint256"
            },
            {
              "internalType": "uint256",
              "name": "endTime",
              "type": "uint256"
            },
            {
              "internalType": "uint256",
              "name": "votesFor",
              "type": "uint256"
            },
            {
              "internalType": "uint256",
              "name": "votesAgainst",
              "type": "uint256"
            },
            {
              "internalType": "uint256",
              "name": "totalVotes",
              "type": "uint256"
            },
            {
              "internalType": "bool",
              "name": "isActive",
              "type": "bool"
            },
            {
              "internalType": "bool",
              "name": "isApproved",
              "type": "bool"
            }
          ],
          "internalType": "struct QuadraticVoting.VotingPeriod",
          "name": "voting",
          "type": "tuple"
        }
      ],
      "stateMutability": "view",
      "type": "function"
    },
    {
      "inputs": [],
      "name": "nextVotingId",
      "outputs": [
        {
          "internalType": "uint256",
          "name": "",
          "type": "uint256"
        }
      ],
      "stateMutability": "view",
      "type": "function"
    },
    {
      "inputs": [],
      "name": "owner",
      "outputs": [
        {
          "internalType": "address",
          "name": "",
          "type": "address"
        }
      ],
      "stateMutability": "view",
      "type": "function"
    },
    {
      "inputs": [],
      "name": "renounceOwnership",
      "outputs": [],
      "stateMutability": "nonpayable",
      "type": "function"
    },
    {
      "inputs": [
        {
          "internalType": "uint256",
          "name": "",
          "type": "uint256"
        }
      ],
      "name": "totalCreditsSpent",
      "outputs": [
        {
          "internalType": "uint256",
          "name": "",
          "type": "uint256"
        }
      ],
      "stateMutability": "view",
      "type": "function"
    },
    {
      "inputs": [
        {
          "internalType": "address",
          "name": "newOwner",
          "type": "address"
        }
      ],
      "name": "transferOwnership",
      "outputs": [],
      "stateMutability": "nonpayable",
      "type": "function"
    },
    {
      "inputs": [
        {
          "internalType": "uint256",
          "name": "",
          "type": "uint256"
        },
        {
          "internalType": "address",
          "name": "",
          "type": "address"
        }
      ],
      "name": "userVotes",
      "outputs": [
        {
          "internalType": "address",
          "name": "voter",
          "type": "address"
        },
        {
          "internalType": "uint256",
          "name": "votes",
          "type": "uint256"
        },
        {
          "internalType": "bool",
          "name": "isFor",
          "type": "bool"
        },
        {
          "internalType": "uint256",
          "name": "timestamp",
          "type": "uint256"
        }
      ],
      "stateMutability": "view",
      "type": "function"
    },
    {
      "inputs": [
        {
          "internalType": "uint256",
          "name": "votingId",
          "type": "uint256"
        },
        {
          "internalType": "uint256",
          "name": "voteCount",
          "type": "uint256"
        },
        {
          "internalType": "bool",
          "name": "isFor",
          "type": "bool"
        }
      ],
      "name": "vote",
      "outputs": [],
      "stateMutability": "payable",
      "type": "function"
    },
    {
      "inputs": [
        {
          "internalType": "uint256",
          "name": "",
          "type": "uint256"
        },
        {
          "internalType": "uint256",
          "name": "",
          "type": "uint256"
        }
      ],
      "name": "votes",
      "outputs": [
        {
          "internalType": "address",
          "name": "voter",
          "type": "address"
        },
        {
          "internalType": "uint256",
          "name": "votes",
          "type": "uint256"
        },
        {
          "internalType": "bool",
          "name": "isFor",
          "type": "bool"
        },
        {
          "internalType": "uint256",
          "name": "timestamp",
          "type": "uint256"
        }
      ],
      "stateMutability": "view",
      "type": "function"
    },
    {
      "inputs": [
        {
          "internalType": "uint256",
          "name": "",
          "type": "uint256"
        }
      ],
      "name": "votingIds",
      "outputs": [
        {
          "internalType": "uint256",
          "name": "",
          "type": "uint256"
        }
      ],
      "stateMutability": "view",
      "type": "function"
    },
    {
      "inputs": [
        {
          "internalType": "uint256",
          "name": "",
          "type": "uint256"
        }
      ],
      "name": "votings",
      "outputs": [
        {
          "internalType": "address",
          "name": "vault",
          "type": "address"
        },
        {
          "internalType": "address",
          "name": "nominee",
          "type": "address"
        },
        {
          "internalType": "string",
          "name": "nomineeName",
          "type": "string"
        },
        {
          "internalType": "string",
          "name": "role",
          "type": "string"
        },
        {
          "internalType": "string",
          "name": "description",
          "type": "string"
        },
        {
          "internalType": "uint256",
          "name": "startTime",
          "type": "uint256"
        },
        {
          "internalType": "uint256",
          "name": "endTime",
          "type": "uint256"
        },
        {
          "internalType": "uint256",
          "name": "votesFor",
          "type": "uint256"
        },
        {
          "internalType": "uint256",
          "name": "votesAgainst",
          "type": "uint256"
        },
        {
          "internalType": "uint256",
          "name": "totalVotes",
          "type": "uint256"
        },
        {
          "internalType": "bool",
          "name": "isActive",
          "type": "bool"
        },
        {
          "internalType": "bool",
          "name": "isApproved",
          "type": "bool"
        }
      ],
      "stateMutability": "view",
      "type": "function"
    }
  ],
  "bytecode": "0x60806040523480156200001157600080fd5b5060405162001e5838038062001e5883398101604081905262000034916200010d565b816001600160a01b0381166200006457604051631e4fbdf760e01b81526000600482015260240160405180910390fd5b6200006f81620000a0565b506001808055600880546001600160a01b0319166001600160a01b0393909316929092179091556007555062000145565b600080546001600160a01b038381166001600160a01b0319831681178455604051919092169283917f8be0079c531659141344cd1fd0a4f28419497f9722a3daafe3b4186f6b6457e09190a35050565b80516001600160a01b03811681146200010857600080fd5b919050565b600080604083850312156200012157600080fd5b6200012c83620000f0565b91506200013c60208401620000f0565b90509250929050565b611d0380620001556000396000f3fe6080604052600436106101095760003560e01c8063899e5d8511610095578063aec30b8111610064578063aec30b81146102fa578063c6e36a321461031c578063f2fde38b1461036c578063fe5b3e3b1461038c578063ff981099146103e957600080fd5b8063899e5d851461024c5780638cf68776146102845780638da5cb5b146102a4578063a598d03c146102c257600080fd5b8063649f89a5116100dc578063649f89a5146101c2578063679ff652146101e45780636a18ff7a14610204578063715018a61461021757806386be9da71461022c57600080fd5b806303c7881a1461010e5780631261d8f51461014457806314ada75b146101685780633afc728214610195575b600080fd5b34801561011a57600080fd5b5061012e6101293660046115d3565b610416565b60405161013b91906115ff565b60405180910390f35b34801561015057600080fd5b5061015a60075481565b60405190815260200161013b565b34801561017457600080fd5b5061015a610183366004611635565b60056020526000908152604090205481565b3480156101a157600080fd5b506101b56101b0366004611635565b610493565b60405161013b9190611694565b3480156101ce57600080fd5b506101e26101dd366004611635565b610755565b005b3480156101f057600080fd5b5061015a6101ff366004611635565b61086c565b6101e261021236600461178e565b61088d565b34801561022357600080fd5b506101e2610df4565b34801561023857600080fd5b5061015a61024736600461186f565b610e08565b34801561025857600080fd5b5060085461026c906001600160a01b031681565b6040516001600160a01b03909116815260200161013b565b34801561029057600080fd5b5061015a61029f366004611635565b61116d565b3480156102b057600080fd5b506000546001600160a01b031661026c565b3480156102ce57600080fd5b506102e26102dd366004611635565b611179565b60405161013b9c9b9a99989796959493929190611921565b34801561030657600080fd5b5061030f611382565b60405161013b91906119c0565b34801561032857600080fd5b5061033c610337366004611a04565b6113da565b604080516001600160a01b039095168552602085019390935290151591830191909152606082015260800161013b565b34801561037857600080fd5b506101e2610387366004611a26565b611430565b34801561039857600080fd5b5061033c6103a73660046115d3565b600460209081526000928352604080842090915290825290208054600182015460028301546003909301546001600160a01b0390921692909160ff9091169084565b3480156103f557600080fd5b50610409610404366004611635565b61146e565b60405161013b9190611a48565b6040805160808082018352600080835260208084018290528385018290526060938401829052868252600481528482206001600160a01b038781168452908252918590208551938401865280549092168352600182015490830152600281015460ff16151593820193909352600390920154908201525b92915050565b61050d60405180610180016040528060006001600160a01b0316815260200160006001600160a01b0316815260200160608152602001606081526020016060815260200160008152602001600081526020016000815260200160008152602001600081526020016000151581526020016000151581525090565b60008281526002602081815260409283902083516101808101855281546001600160a01b039081168252600183015416928101929092529182018054919384019161055790611ab3565b80601f016020809104026020016040519081016040528092919081815260200182805461058390611ab3565b80156105d05780601f106105a5576101008083540402835291602001916105d0565b820191906000526020600020905b8154815290600101906020018083116105b357829003601f168201915b505050505081526020016003820180546105e990611ab3565b80601f016020809104026020016040519081016040528092919081815260200182805461061590611ab3565b80156106625780601f1061063757610100808354040283529160200191610662565b820191906000526020600020905b81548152906001019060200180831161064557829003601f168201915b5050505050815260200160048201805461067b90611ab3565b80601f01602080910402602001604051908101604052809291908181526020018280546106a790611ab3565b80156106f45780601f106106c9576101008083540402835291602001916106f4565b820191906000526020600020905b8154815290600101906020018083116106d757829003601f168201915b505050918352505060058201546020820152600682015460408201526007820154606082015260088201546080820152600982015460a0820152600a9091015460ff808216151560c084015261010090910416151560e09091015292915050565b6000818152600260205260409020600a81015460ff166107905760405162461bcd60e51b815260040161078790611aed565b60405180910390fd5b80600601544210156107ee5760405162461bcd60e51b815260206004820152602160248201527f517561647261746963566f74696e673a20766f74696e67206e6f7420656e64656044820152601960fa1b6064820152608401610787565b600a810180546008830154600784015481811161010090810261ffff19909416939093179384905560405186947f421cca055ac30c05641f0d49bd7ff44e837ea6086dbc8b6c600164165ea424779461086094910460ff16929192151583526020830191909152604082015260600190565b60405180910390a25050565b6006818154811061087c57600080fd5b600091825260209091200154905081565b610895611510565b6000838152600260205260409020600a81015460ff166108c75760405162461bcd60e51b815260040161078790611aed565b80600501544210156109275760405162461bcd60e51b815260206004820152602360248201527f517561647261746963566f74696e673a20766f74696e67206e6f7420737461726044820152621d195960ea1b6064820152608401610787565b8060060154421061097a5760405162461bcd60e51b815260206004820152601d60248201527f517561647261746963566f74696e673a20766f74696e6720656e6465640000006044820152606401610787565b600083116109d55760405162461bcd60e51b815260206004820152602260248201527f517561647261746963566f74696e673a20766f746573206d757374206265203e604482015261020360f41b6064820152608401610787565b600a831115610a355760405162461bcd60e51b815260206004820152602660248201527f517561647261746963566f74696e673a206d617820313020766f74657320706560448201526539103ab9b2b960d11b6064820152608401610787565b6000610a418480611b45565b6000868152600460209081526040808320338452825291829020825160808101845281546001600160a01b031681526001820154928101839052600282015460ff161515938101939093526003015460608301529192509015610ace576020810151600090610ab09080611b45565b9050808311610ac0576000610aca565b610aca8184611b5c565b9250505b6008546001600160a01b0316610b3c5781341015610b3c5760405162461bcd60e51b815260206004820152602560248201527f517561647261746963566f74696e673a20696e73756666696369656e742070616044820152641e5b595b9d60da1b6064820152608401610787565b602081015115610baf57806040015115610b73578060200151836007016000828254610b689190611b5c565b90915550610b919050565b8060200151836008016000828254610b8b9190611b5c565b90915550505b8060200151836009016000828254610ba99190611b5c565b90915550505b8315610bd45784836007016000828254610bc99190611b6f565b90915550610bee9050565b84836008016000828254610be89190611b6f565b90915550505b84836009016000828254610c029190611b6f565b9250508190555060006040518060800160405280336001600160a01b03168152602001878152602001861515815260200142815250905080600460008981526020019081526020016000206000336001600160a01b03166001600160a01b0316815260200190815260200160002060008201518160000160006101000a8154816001600160a01b0302191690836001600160a01b031602179055506020820151816001015560408201518160020160006101000a81548160ff021916908315150217905550606082015181600301559050506003600088815260200190815260200160002081908060018154018082558091505060019003906000526020600020906004020160009091909190915060008201518160000160006101000a8154816001600160a01b0302191690836001600160a01b031602179055506020820151816001015560408201518160020160006101000a81548160ff02191690831515021790555060608201518160030155505082600560008981526020019081526020016000206000828254610d979190611b6f565b9091555050604080518781528615156020820152908101849052339088907f1f838ff2ace37385d949004387520084512318ffa2d8edbd788a1e5b41c331cd9060600160405180910390a350505050610def60018055565b505050565b610dfc61153a565b610e066000611567565b565b6000610e1261153a565b6001600160a01b038716610e685760405162461bcd60e51b815260206004820152601e60248201527f517561647261746963566f74696e673a20696e76616c6964207661756c7400006044820152606401610787565b6001600160a01b038616610ebe5760405162461bcd60e51b815260206004820181905260248201527f517561647261746963566f74696e673a20696e76616c6964206e6f6d696e65656044820152606401610787565b6000855111610f0f5760405162461bcd60e51b815260206004820152601e60248201527f517561647261746963566f74696e673a206e616d6520726571756972656400006044820152606401610787565b60008211610f6d5760405162461bcd60e51b815260206004820152602560248201527f517561647261746963566f74696e673a206475726174696f6e206d7573742062604482015264065203e20360dc1b6064820152608401610787565b60078054906000610f7d83611b82565b909155509050426000610f908483611b6f565b60408051610180810182526001600160a01b03808d1682528b811660208084019182528385018d8152606085018d9052608085018c905260a0850189905260c08501879052600060e08601819052610100860181905261012086018190526001610140870181905261016087018290528b8252600293849052969020855181549086166001600160a01b031991821617825593519681018054979095169690931695909517909255925193945090929082019061104d9082611beb565b50606082015160038201906110629082611beb565b50608082015160048201906110779082611beb565b5060a0820151600582015560c082015160068083019190915560e083015160078301556101008084015160088401556101208401516009840155610140840151600a90930180546101609095015161ffff1990951693151561ff001916939093179315150292909217905580546001810182556000919091527ff652222313e28459528d920b65115c16c04f3efc82aaedc97be59f3f377c0d3f018390556040516001600160a01b0389811691908b169085907f832c870e156da655559c044619af71c346fc3bafa39e3ae29ea64317edb5600b90611159908c908790611cab565b60405180910390a450509695505050505050565b600061048d8280611b45565b60026020819052600091825260409091208054600182015492820180546001600160a01b039283169490921692916111b090611ab3565b80601f01602080910402602001604051908101604052809291908181526020018280546111dc90611ab3565b80156112295780601f106111fe57610100808354040283529160200191611229565b820191906000526020600020905b81548152906001019060200180831161120c57829003601f168201915b50505050509080600301805461123e90611ab3565b80601f016020809104026020016040519081016040528092919081815260200182805461126a90611ab3565b80156112b75780601f1061128c576101008083540402835291602001916112b7565b820191906000526020600020905b81548152906001019060200180831161129a57829003601f168201915b5050505050908060040180546112cc90611ab3565b80601f01602080910402602001604051908101604052809291908181526020018280546112f890611ab3565b80156113455780601f1061131a57610100808354040283529160200191611345565b820191906000526020600020905b81548152906001019060200180831161132857829003601f168201915b50505060058401546006850154600786015460088701546009880154600a9098015496979396929550909350919060ff808216916101009004168c565b606060068054806020026020016040519081016040528092919081815260200182805480156113d057602002820191906000526020600020905b8154815260200190600101908083116113bc575b5050505050905090565b600360205281600052604060002081815481106113f657600080fd5b600091825260209091206004909102018054600182015460028301546003909301546001600160a01b039092169450925060ff9091169084565b61143861153a565b6001600160a01b03811661146257604051631e4fbdf760e01b815260006004820152602401610787565b61146b81611567565b50565b606060036000838152602001908152602001600020805480602002602001604051908101604052809291908181526020016000905b82821015611505576000848152602090819020604080516080810182526004860290920180546001600160a01b0316835260018082015484860152600282015460ff1615159284019290925260030154606083015290835290920191016114a3565b505050509050919050565b60026001540361153357604051633ee5aeb560e01b815260040160405180910390fd5b6002600155565b6000546001600160a01b03163314610e065760405163118cdaa760e01b8152336004820152602401610787565b600080546001600160a01b038381166001600160a01b0319831681178455604051919092169283917f8be0079c531659141344cd1fd0a4f28419497f9722a3daafe3b4186f6b6457e09190a35050565b80356001600160a01b03811681146115ce57600080fd5b919050565b600080604083850312156115e657600080fd5b823591506115f6602084016115b7565b90509250929050565b81516001600160a01b0316815260208083015190820152604080830151151590820152606080830151908201526080810161048d565b60006020828403121561164757600080fd5b5035919050565b6000815180845260005b8181101561167457602081850181015186830182015201611658565b506000602082860101526020601f19601f83011685010191505092915050565b602081526116ae6020820183516001600160a01b03169052565b600060208301516116ca60408401826001600160a01b03169052565b5060408301516101808060608501526116e76101a085018361164e565b91506060850151601f1980868503016080870152611705848361164e565b935060808701519150808685030160a087015250611723838261164e565b92505060a085015160c085015260c085015160e085015260e085015161010081818701528087015191505061012081818701528087015191505061014081818701528087015191505061016061177c8187018315159052565b90950151151593019290925250919050565b6000806000606084860312156117a357600080fd5b8335925060208401359150604084013580151581146117c157600080fd5b809150509250925092565b634e487b7160e01b600052604160045260246000fd5b600082601f8301126117f357600080fd5b813567ffffffffffffffff8082111561180e5761180e6117cc565b604051601f8301601f19908116603f01168101908282118183101715611836576118366117cc565b8160405283815286602085880101111561184f57600080fd5b836020870160208301376000602085830101528094505050505092915050565b60008060008060008060c0878903121561188857600080fd5b611891876115b7565b955061189f602088016115b7565b9450604087013567ffffffffffffffff808211156118bc57600080fd5b6118c88a838b016117e2565b955060608901359150808211156118de57600080fd5b6118ea8a838b016117e2565b9450608089013591508082111561190057600080fd5b5061190d89828a016117e2565b92505060a087013590509295509295509295565b6001600160a01b038d811682528c1660208201526101806040820181905260009061194e9083018d61164e565b8281036060840152611960818d61164e565b90508281036080840152611974818c61164e565b9150508860a08301528760c08301528660e083015285610100830152846101208301528315156101408301526119af61016083018415159052565b9d9c50505050505050505050505050565b6020808252825182820181905260009190848201906040850190845b818110156119f8578351835292840192918401916001016119dc565b50909695505050505050565b60008060408385031215611a1757600080fd5b50508035926020909101359150565b600060208284031215611a3857600080fd5b611a41826115b7565b9392505050565b6020808252825182820181905260009190848201906040850190845b818110156119f857611aa083855180516001600160a01b0316825260208082015190830152604080820151151590830152606090810151910152565b9284019260809290920191600101611a64565b600181811c90821680611ac757607f821691505b602082108103611ae757634e487b7160e01b600052602260045260246000fd5b50919050565b60208082526022908201527f517561647261746963566f74696e673a20766f74696e67206e6f742061637469604082015261766560f01b606082015260800190565b634e487b7160e01b600052601160045260246000fd5b808202811582820484141761048d5761048d611b2f565b8181038181111561048d5761048d611b2f565b8082018082111561048d5761048d611b2f565b600060018201611b9457611b94611b2f565b5060010190565b601f821115610def576000816000526020600020601f850160051c81016020861015611bc45750805b601f850160051c820191505b81811015611be357828155600101611bd0565b505050505050565b815167ffffffffffffffff811115611c0557611c056117cc565b611c1981611c138454611ab3565b84611b9b565b602080601f831160018114611c4e5760008415611c365750858301515b600019600386901b1c1916600185901b178555611be3565b600085815260208120601f198616915b82811015611c7d57888601518255948401946001909101908401611c5e565b5085821015611c9b5787850151600019600388901b60f8161c191681555b5050505050600190811b01905550565b604081526000611cbe604083018561164e565b9050826020830152939250505056fea2646970667358221220c9a1130bcb6b79aff660736282645935516f8d18ad3502feed752b880f9a22b964736f6c63430008170033",
  "linkReferences": {},
  "deployedLinkReferences": {}
}