{
  "_format": "hh-sol-artifact-1",
  "contractName": "SparkVaultFactory",
  "sourceName": "contracts/SparkVaultFactory.sol",
  "abi": [
    {
      "inputs": [
        {
          "internalType": "address",
          "name": "owner",
          "type": "address"
        }
      ],
      "stateMutability": "nonpayable",
      "type": "constructor"
    },
    {
      "inputs": [
        {
          "internalType": "address",
          "name": "owner",
          "type": "address"
        }
      ],
      "name": "OwnableInvalidOwner",
      "type": "error"
    },
    {
      "inputs": [
        {
          "internalType": "address",
          "name": "account",
          "type": "address"
        }
      ],
      "name": "OwnableUnauthorizedAccount",
      "type": "error"
    },
    {
      "anonymous": false,
      "inputs": [
        {
          "indexed": true,
          "internalType": "address",
          "name": "previousOwner",
          "type": "address"
        },
        {
          "indexed": true,
          "internalType": "address",
          "name": "newOwner",
          "type": "address"
        }
      ],
      "name": "OwnershipTransferred",
      "type": "event"
    },
    {
      "anonymous": false,
      "inputs": [
        {
          "indexed": true,
          "internalType": "address",
          "name": "asset",
          "type": "address"
        },
        {
          "indexed": false,
          "internalType": "address",
          "name": "sparkPool",
          "type": "address"
        },
        {
          "indexed": false,
          "internalType": "address",
          "name": "sparkAToken",
          "type": "address"
        }
      ],
      "name": "SparkConfigRegistered",
      "type": "event"
    },
    {
      "anonymous": false,
      "inputs": [
        {
          "indexed": true,
          "internalType": "address",
          "name": "vault",
          "type": "address"
        },
        {
          "indexed": true,
          "internalType": "address",
          "name": "deployer",
          "type": "address"
        },
        {
          "indexed": false,
          "internalType": "string",
          "name": "name",
          "type": "string"
        },
        {
          "indexed": false,
          "internalType": "address",
          "name": "asset",
          "type": "address"
        },
        {
          "indexed": true,
          "internalType": "address",
          "name": "sparkPool",
          "type": "address"
        }
      ],
      "name": "VaultCreated",
      "type": "event"
    },
    {
      "inputs": [
        {
          "internalType": "address",
          "name": "asset",
          "type": "address"
        },
        {
          "internalType": "string",
          "name": "name",
          "type": "string"
        },
        {
          "internalType": "string",
          "name": "description",
          "type": "string"
        }
      ],
      "name": "createVault",
      "outputs": [
        {
          "internalType": "address",
          "name": "vaultAddress",
          "type": "address"
        }
      ],
      "stateMutability": "nonpayable",
      "type": "function"
    },
    {
      "inputs": [],
      "name": "getAllVaults",
      "outputs": [
        {
          "internalType": "address[]",
          "name": "addresses",
          "type": "address[]"
        }
      ],
      "stateMutability": "view",
      "type": "function"
    },
    {
      "inputs": [
        {
          "internalType": "address",
          "name": "asset",
          "type": "address"
        }
      ],
      "name": "getSparkConfig",
      "outputs": [
        {
          "internalType": "address",
          "name": "sparkPool",
          "type": "address"
        },
        {
          "internalType": "address",
          "name": "sparkAToken",
          "type": "address"
        },
        {
          "internalType": "bool",
          "name": "isConfigured",
          "type": "bool"
        }
      ],
      "stateMutability": "view",
      "type": "function"
    },
    {
      "inputs": [],
      "name": "getVaultCount",
      "outputs": [
        {
          "internalType": "uint256",
          "name": "count",
          "type": "uint256"
        }
      ],
      "stateMutability": "view",
      "type": "function"
    },
    {
      "inputs": [
        {
          "internalType": "address",
          "name": "deployer",
          "type": "address"
        }
      ],
      "name": "getVaultsByDeployer",
      "outputs": [
        {
          "internalType": "address[]",
          "name": "addresses",
          "type": "address[]"
        }
      ],
      "stateMutability": "view",
      "type": "function"
    },
    {
      "inputs": [],
      "name": "owner",
      "outputs": [
        {
          "internalType": "address",
          "name": "",
          "type": "address"
        }
      ],
      "stateMutability": "view",
      "type": "function"
    },
    {
      "inputs": [
        {
          "internalType": "address",
          "name": "asset",
          "type": "address"
        },
        {
          "internalType": "address",
          "name": "sparkPoolAddress",
          "type": "address"
        },
        {
          "internalType": "address",
          "name": "sparkATokenAddress",
          "type": "address"
        }
      ],
      "name": "registerSparkConfig",
      "outputs": [],
      "stateMutability": "nonpayable",
      "type": "function"
    },
    {
      "inputs": [],
      "name": "renounceOwnership",
      "outputs": [],
      "stateMutability": "nonpayable",
      "type": "function"
    },
    {
      "inputs": [
        {
          "internalType": "address",
          "name": "",
          "type": "address"
        }
      ],
      "name": "sparkConfigs",
      "outputs": [
        {
          "internalType": "address",
          "name": "sparkPool",
          "type": "address"
        },
        {
          "internalType": "address",
          "name": "sparkAToken",
          "type": "address"
        },
        {
          "internalType": "bool",
          "name": "isConfigured",
          "type": "bool"
        }
      ],
      "stateMutability": "view",
      "type": "function"
    },
    {
      "inputs": [
        {
          "internalType": "address",
          "name": "newOwner",
          "type": "address"
        }
      ],
      "name": "transferOwnership",
      "outputs": [],
      "stateMutability": "nonpayable",
      "type": "function"
    },
    {
      "inputs": [
        {
          "internalType": "uint256",
          "name": "",
          "type": "uint256"
        }
      ],
      "name": "vaults",
      "outputs": [
        {
          "internalType": "address",
          "name": "",
          "type": "address"
        }
      ],
      "stateMutability": "view",
      "type": "function"
    },
    {
      "inputs": [
        {
          "internalType": "address",
          "name": "",
          "type": "address"
        },
        {
          "internalType": "uint256",
          "name": "",
          "type": "uint256"
        }
      ],
      "name": "vaultsByDeployer",
      "outputs": [
        {
          "internalType": "address",
          "name": "",
          "type": "address"
        }
      ],
      "stateMutability": "view",
      "type": "function"
    }
  ],
  "bytecode": "0x608060405234801561001057600080fd5b5060405161423b38038061423b83398101604081905261002f916100be565b806001600160a01b03811661005e57604051631e4fbdf760e01b81526000600482015260240160405180910390fd5b6100678161006e565b50506100ee565b600080546001600160a01b038381166001600160a01b0319831681178455604051919092169283917f8be0079c531659141344cd1fd0a4f28419497f9722a3daafe3b4186f6b6457e09190a35050565b6000602082840312156100d057600080fd5b81516001600160a01b03811681146100e757600080fd5b9392505050565b61413e806100fd6000396000f3fe60806040523480156200001157600080fd5b5060043610620000c35760003560e01c80638c64ea4a116200007a5780638c64ea4a14620001d85780638da5cb5b14620001ef57806397331bf91462000201578063b0f654f9146200021a578063d5e15485146200025d578063f2fde38b146200027457600080fd5b80631b21228314620000c8578063515d61ec146200015c57806365949dad146200018c578063715018a614620001a557806374d4e49114620001af5780637e880c8a14620001c1575b600080fd5b6200012f620000d9366004620008e7565b6001600160a01b03908116600090815260036020908152604091829020825160608101845281548516808252600190920154948516928101839052600160a01b90940460ff161515939092018390529092909190565b604080516001600160a01b0394851681529390921660208401521515908201526060015b60405180910390f35b620001736200016d366004620009b7565b6200028b565b6040516001600160a01b03909116815260200162000153565b620001a36200019d36600462000a34565b620004d6565b005b620001a3620006a1565b60015460405190815260200162000153565b62000173620001d236600462000a7e565b620006b9565b62000173620001e936600462000aab565b620006f2565b6000546001600160a01b031662000173565b6200020b6200071d565b60405162000153919062000ac5565b6200012f6200022b366004620008e7565b600360205260009081526040902080546001909101546001600160a01b0391821691811690600160a01b900460ff1683565b6200020b6200026e366004620008e7565b62000781565b620001a362000285366004620008e7565b620007f9565b60006001600160a01b038416620002bf5760405162461bcd60e51b8152600401620002b69062000b14565b60405180910390fd5b6000835111620003125760405162461bcd60e51b815260206004820181905260248201527f537061726b5661756c74466163746f72793a206e616d652072657175697265646044820152606401620002b6565b6001600160a01b03848116600090815260036020908152604091829020825160608101845281548516815260019091015493841691810191909152600160a01b90920460ff161515908201819052620003c55760405162461bcd60e51b815260206004820152602e60248201527f537061726b5661756c74466163746f72793a20737061726b20636f6e6669672060448201526d1b9bdd081c9959da5cdd195c995960921b6064820152608401620002b6565b60008582600001518360200151878733604051620003e390620008bc565b620003f49695949392919062000ba4565b604051809103906000f08015801562000411573d6000803e3d6000fd5b506001805480820182557fb10e2d527612073b26eecdfd717e6a320cf44b4afac2b0732d9fcbe2b7fa0cf60180546001600160a01b038085166001600160a01b031992831681179093553360008181526002602090815260408083208054988901815583529120909501805490931684179092558651935194975087955092909216927f8b4b1b0dcaba910eccab46f2ee0dc87a77f225166101a39744209a97d55df71d90620004c5908a908c9062000c03565b60405180910390a450509392505050565b620004e06200083d565b6001600160a01b038316620005095760405162461bcd60e51b8152600401620002b69062000b14565b6001600160a01b038216620005775760405162461bcd60e51b815260206004820152602d60248201527f537061726b5661756c74466163746f72793a20696e76616c696420737061726b60448201526c20706f6f6c206164647265737360981b6064820152608401620002b6565b6001600160a01b038116620005e75760405162461bcd60e51b815260206004820152602f60248201527f537061726b5661756c74466163746f72793a20696e76616c696420737061726b60448201526e2061546f6b656e206164647265737360881b6064820152608401620002b6565b604080516060810182526001600160a01b03848116808352848216602080850182815260018688018181528b87166000818152600386528a9020985189546001600160a01b03191690891617895592519790910180549151979096166001600160a81b031990911617600160a01b961515969096029590951790935584519182529181019190915290917fcf814e91c6a3dafa8be5f9253f08697658c9c5245ed755a451bf4339c2c1fa34910160405180910390a2505050565b620006ab6200083d565b620006b760006200086c565b565b60026020528160005260406000208181548110620006d657600080fd5b6000918252602090912001546001600160a01b03169150829050565b600181815481106200070357600080fd5b6000918252602090912001546001600160a01b0316905081565b606060018054806020026020016040519081016040528092919081815260200182805480156200077757602002820191906000526020600020905b81546001600160a01b0316815260019091019060200180831162000758575b5050505050905090565b6001600160a01b038116600090815260026020908152604091829020805483518184028101840190945280845260609392830182828015620007ed57602002820191906000526020600020905b81546001600160a01b03168152600190910190602001808311620007ce575b50505050509050919050565b620008036200083d565b6001600160a01b0381166200082f57604051631e4fbdf760e01b815260006004820152602401620002b6565b6200083a816200086c565b50565b6000546001600160a01b03163314620006b75760405163118cdaa760e01b8152336004820152602401620002b6565b600080546001600160a01b038381166001600160a01b0319831681178455604051919092169283917f8be0079c531659141344cd1fd0a4f28419497f9722a3daafe3b4186f6b6457e09190a35050565b6134d98062000c3083390190565b80356001600160a01b0381168114620008e257600080fd5b919050565b600060208284031215620008fa57600080fd5b6200090582620008ca565b9392505050565b634e487b7160e01b600052604160045260246000fd5b600082601f8301126200093457600080fd5b813567ffffffffffffffff808211156200095257620009526200090c565b604051601f8301601f19908116603f011681019082821181831017156200097d576200097d6200090c565b816040528381528660208588010111156200099757600080fd5b836020870160208301376000602085830101528094505050505092915050565b600080600060608486031215620009cd57600080fd5b620009d884620008ca565b9250602084013567ffffffffffffffff80821115620009f657600080fd5b62000a048783880162000922565b9350604086013591508082111562000a1b57600080fd5b5062000a2a8682870162000922565b9150509250925092565b60008060006060848603121562000a4a57600080fd5b62000a5584620008ca565b925062000a6560208501620008ca565b915062000a7560408501620008ca565b90509250925092565b6000806040838503121562000a9257600080fd5b62000a9d83620008ca565b946020939093013593505050565b60006020828403121562000abe57600080fd5b5035919050565b6020808252825182820181905260009190848201906040850190845b8181101562000b085783516001600160a01b03168352928401929184019160010162000ae1565b50909695505050505050565b60208082526028908201527f537061726b5661756c74466163746f72793a20696e76616c6964206173736574604082015267206164647265737360c01b606082015260800190565b6000815180845260005b8181101562000b845760208185018101518683018201520162000b66565b506000602082860101526020601f19601f83011685010191505092915050565b600060018060a01b0380891683528088166020840152808716604084015260c0606084015262000bd860c084018762000b5c565b838103608085015262000bec818762000b5c565b92505080841660a084015250979650505050505050565b60408152600062000c18604083018562000b5c565b905060018060a01b0383166020830152939250505056fe6101006040523480156200001257600080fd5b50604051620034d9380380620034d98339810160408190526200003591620005bc565b8086846040516020016200004a91906200067c565b60408051601f1981840301815291905262000065896200030f565b604051602001620000779190620006b2565b60408051601f1981840301815291905260036200009583826200076f565b506004620000a482826200076f565b505050600080620000bb836200039f60201b60201c565b9150915081620000cd576012620000cf565b805b60ff1660a05250506001600160a01b0390811660805281166200010d57604051631e4fbdf760e01b8152600060048201526024015b60405180910390fd5b620001188162000484565b5060016006556001600160a01b038516620001855760405162461bcd60e51b815260206004820152602660248201527f537061726b5661756c743a20696e76616c696420737061726b20706f6f6c206160448201526564647265737360d01b606482015260840162000104565b6001600160a01b038416620001ee5760405162461bcd60e51b815260206004820152602860248201527f537061726b5661756c743a20696e76616c696420737061726b2061546f6b656e604482015267206164647265737360c01b606482015260840162000104565b6001600160a01b0380861660c052841660e05260076200020f84826200076f565b5060086200021e83826200076f565b50600980546001600160a01b0319166001600160a01b038381169190911790915542600a5560405163095ea7b360e01b8152868216600482015260001960248201529087169063095ea7b3906044016020604051808303816000875af11580156200028d573d6000803e3d6000fd5b505050506040513d601f19601f82011682018060405250810190620002b391906200083b565b50846001600160a01b0316816001600160a01b03167f22710dc25a1eb58a36e7732b8245d524ff0596da35ef098a46c378b8c4df2e5e8585604051620002fb92919062000894565b60405180910390a35050505050506200093e565b6060816001600160a01b03166395d89b416040518163ffffffff1660e01b8152600401600060405180830381865afa9250505080156200037357506040513d6000823e601f3d908101601f19168201604052620003709190810190620008c6565b60015b620003995750506040805180820190915260058152641054d4d15560da1b602082015290565b92915050565b60408051600481526024810182526020810180516001600160e01b031663313ce56760e01b17905290516000918291829182916001600160a01b03871691620003e89162000906565b600060405180830381855afa9150503d806000811462000425576040519150601f19603f3d011682016040523d82523d6000602084013e6200042a565b606091505b50915091508180156200043f57506020815110155b1562000477576000818060200190518101906200045d919062000924565b905060ff811162000475576001969095509350505050565b505b5060009485945092505050565b600580546001600160a01b038381166001600160a01b0319831681179093556040519116919082907f8be0079c531659141344cd1fd0a4f28419497f9722a3daafe3b4186f6b6457e090600090a35050565b6001600160a01b0381168114620004ec57600080fd5b50565b634e487b7160e01b600052604160045260246000fd5b60005b838110156200052257818101518382015260200162000508565b50506000910152565b600082601f8301126200053d57600080fd5b81516001600160401b03808211156200055a576200055a620004ef565b604051601f8301601f19908116603f01168101908282118183101715620005855762000585620004ef565b816040528381528660208588010111156200059f57600080fd5b620005b284602083016020890162000505565b9695505050505050565b60008060008060008060c08789031215620005d657600080fd5b8651620005e381620004d6565b6020880151909650620005f681620004d6565b60408801519095506200060981620004d6565b60608801519094506001600160401b03808211156200062757600080fd5b620006358a838b016200052b565b945060808901519150808211156200064c57600080fd5b506200065b89828a016200052b565b92505060a08701516200066e81620004d6565b809150509295509295509295565b6b029b830b935902b30bab63a160a51b815260008251620006a581600c85016020870162000505565b91909101600c0192915050565b6139bb60f11b815260008251620006d181600285016020870162000505565b9190910160020192915050565b600181811c90821680620006f357607f821691505b6020821081036200071457634e487b7160e01b600052602260045260246000fd5b50919050565b601f8211156200076a576000816000526020600020601f850160051c81016020861015620007455750805b601f850160051c820191505b81811015620007665782815560010162000751565b5050505b505050565b81516001600160401b038111156200078b576200078b620004ef565b620007a3816200079c8454620006de565b846200071a565b602080601f831160018114620007db5760008415620007c25750858301515b600019600386901b1c1916600185901b17855562000766565b600085815260208120601f198616915b828110156200080c57888601518255948401946001909101908401620007eb565b50858210156200082b5787850151600019600388901b60f8161c191681555b5050505050600190811b01905550565b6000602082840312156200084e57600080fd5b815180151581146200085f57600080fd5b9392505050565b600081518084526200088081602086016020860162000505565b601f01601f19169290920160200192915050565b604081526000620008a9604083018562000866565b8281036020840152620008bd818562000866565b95945050505050565b600060208284031215620008d957600080fd5b81516001600160401b03811115620008f057600080fd5b620008fe848285016200052b565b949350505050565b600082516200091a81846020870162000505565b9190910192915050565b6000602082840312156200093757600080fd5b5051919050565b60805160a05160c05160e051612b06620009d36000396000818161049401526106620152600081816103de01528181610eac01528181611166015281816118710152611bce01526000610d900152600081816103a001528181610e7b01528181610ed301528181611898015281816119a701528181611bf501528181611cc601528181611fdf015261209f0152612b066000f3fe608060405234801561001057600080fd5b506004361061027f5760003560e01c80637f98aa711161015c578063ba087652116100ce578063d905777e11610087578063d905777e1461058b578063dd62ed3e1461059e578063e4f088ee146105d7578063ef8b30f7146105f7578063f2fde38b1461060a578063fbfe3ab21461061d57600080fd5b8063ba08765214610536578063c63d75b6146103c4578063c6e6f59214610549578063ce96cb771461055c578063cf09e0d01461056f578063d5f394881461057857600080fd5b806395d89b411161012057806395d89b41146104da578063a9059cbb146104e2578063aee349f8146104f5578063aff1fcd214610508578063b3d7f6b914610510578063b460af941461052357600080fd5b80637f98aa711461046d578063874e1e041461048757806389f3858e1461048f5780638da5cb5b146104b657806394bf804d146104c757600080fd5b80632843594f116101f557806348f123ce116101b957806348f123ce146103d95780634cdad506146104005780636e553f651461041357806370a0823114610426578063715018a61461044f5780637931e67d1461045757600080fd5b80632843594f146103515780632c8bad4314610359578063313ce5671461038457806338d52e0f1461039e578063402d267d146103c457600080fd5b80630ace9ca0116102475780630ace9ca0146102fd578063124305bb1461030557806318160ddd1461031a5780631832bb1f14610322578063200094051461033557806323b872dd1461033e57600080fd5b806301e1d1141461028457806306fdde031461029f57806307a2d13a146102b4578063095ea7b3146102c75780630a28a477146102ea575b600080fd5b61028c610640565b6040519081526020015b60405180910390f35b6102a76106d3565b604051610296919061258f565b61028c6102c23660046125a2565b610765565b6102da6102d53660046125d7565b6107ad565b6040519015158152602001610296565b61028c6102f83660046125a2565b6107c5565b6102a76107d2565b61031861031336600461264d565b610860565b005b60025461028c565b6103186103303660046125d7565b610b2c565b61028c600b5481565b6102da61034c3660046126b9565b610d05565b61028c610d2b565b61036c6103673660046125a2565b610d5e565b6040516001600160a01b039091168152602001610296565b61038c610d88565b60405160ff9091168152602001610296565b7f000000000000000000000000000000000000000000000000000000000000000061036c565b61028c6103d23660046126f5565b5060001990565b61036c7f000000000000000000000000000000000000000000000000000000000000000081565b61028c61040e3660046125a2565b610db9565b61028c610421366004612710565b610dc6565b61028c6104343660046126f5565b6001600160a01b031660009081526020819052604090205490565b610318611015565b61045f611029565b60405161029692919061273c565b610475611144565b604051610296969594939291906127c0565b6102a76112b1565b61036c7f000000000000000000000000000000000000000000000000000000000000000081565b6005546001600160a01b031661036c565b61028c6104d5366004612710565b6112be565b6102a76112dc565b6102da6104f03660046125d7565b6112eb565b6103186105033660046126f5565b6112f9565b6103186114ca565b61028c61051e3660046125a2565b61170f565b61028c610531366004612814565b61171c565b61028c610544366004612814565b611787565b61028c6105573660046125a2565b611a24565b61028c61056a3660046126f5565b611a58565b61028c600a5481565b60095461036c906001600160a01b031681565b61028c6105993660046126f5565b611a7c565b61028c6105ac366004612850565b6001600160a01b03918216600090815260016020908152604080832093909416825291909152205490565b61028c6105e53660046126f5565b600e6020526000908152604090205481565b61028c6106053660046125a2565b611a9a565b6103186106183660046126f5565b611aa7565b6102da61062b3660046126f5565b600d6020526000908152604090205460ff1681565b6040516370a0823160e01b815230600482015260009081906001600160a01b037f000000000000000000000000000000000000000000000000000000000000000016906370a0823190602401602060405180830381865afa1580156106a9573d6000803e3d6000fd5b505050506040513d601f19601f820116820180604052508101906106cd919061287a565b92915050565b6060600380546106e290612893565b80601f016020809104026020016040519081016040528092919081815260200182805461070e90612893565b801561075b5780601f106107305761010080835404028352916020019161075b565b820191906000526020600020905b81548152906001019060200180831161073e57829003601f168201915b5050505050905090565b60008061077160025490565b9050806000036107845750600092915050565b600061078e610640565b90508161079b82866128e3565b6107a59190612910565b949350505050565b6000336107bb818585611ae5565b5060019392505050565b60006106cd826001611af7565b600780546107df90612893565b80601f016020809104026020016040519081016040528092919081815260200182805461080b90612893565b80156108585780601f1061082d57610100808354040283529160200191610858565b820191906000526020600020905b81548152906001019060200180831161083b57829003601f168201915b505050505081565b610868611b30565b610870611b5d565b8281146108ce5760405162461bcd60e51b815260206004820152602160248201527f537061726b5661756c743a206172726179206c656e677468206d69736d6174636044820152600d60fb1b60648201526084015b60405180910390fd5b8261091b5760405162461bcd60e51b815260206004820152601860248201527f537061726b5661756c743a20656d70747920617272617973000000000000000060448201526064016108c5565b60005b83811015610a1557600085858381811061093a5761093a612924565b905060200201602081019061094f91906126f5565b6001600160a01b0316036109a55760405162461bcd60e51b815260206004820152601d60248201527f537061726b5661756c743a20696e76616c696420726563697069656e7400000060448201526064016108c5565b60008383838181106109b9576109b9612924565b9050602002013511610a0d5760405162461bcd60e51b815260206004820152601a60248201527f537061726b5661756c743a20696e76616c696420616d6f756e7400000000000060448201526064016108c5565b60010161091e565b506000805b82811015610a5057838382818110610a3457610a34612924565b9050602002013582610a46919061293a565b9150600101610a1a565b506000610a5b610d2b565b905080821115610aad5760405162461bcd60e51b815260206004820152601e60248201527f537061726b5661756c743a20696e73756666696369656e74207969656c64000060448201526064016108c5565b610b1a86868080602002602001604051908101604052809392919081815260200183836020028082843760009201919091525050604080516020808a02828101820190935289825290935089925088918291850190849080828437600092019190915250611b8792505050565b5050610b266001600655565b50505050565b610b34611b30565b6001600160a01b038216610b8a5760405162461bcd60e51b815260206004820152601d60248201527f537061726b5661756c743a20696e76616c696420726563697069656e7400000060448201526064016108c5565b600081118015610b9c57506127108111155b610be85760405162461bcd60e51b815260206004820152601e60248201527f537061726b5661756c743a20696e76616c69642070657263656e74616765000060448201526064016108c5565b6001600160a01b0382166000908152600d602052604090205460ff1615610c5d5760405162461bcd60e51b8152602060048201526024808201527f537061726b5661756c743a20726563697069656e7420616c72656164792065786044820152636973747360e01b60648201526084016108c5565b600c805460018082019092557fdf6966c971051c3d54ec59162606531493a51404a002842f56009d7e5cf4a8c70180546001600160a01b0319166001600160a01b0385169081179091556000818152600d60209081526040808320805460ff1916909517909455600e815290839020849055915183815290917f18d11e8a7c615f6aa39439c3df5da23214d35037715faecdee805d4b915d685d910160405180910390a25050565b600033610d13858285611dde565b610d1e858585611e57565b60019150505b9392505050565b600080610d36610640565b600b5490915080821115610d5557610d4e818361294d565b9250505090565b60009250505090565b600c8181548110610d6e57600080fd5b6000918252602090912001546001600160a01b0316905081565b6000610db4817f0000000000000000000000000000000000000000000000000000000000000000612960565b905090565b60006106cd826000611eb6565b6000610dd0611b5d565b60008311610e205760405162461bcd60e51b815260206004820152601a60248201527f537061726b5661756c743a20696e76616c696420616d6f756e7400000000000060448201526064016108c5565b6001600160a01b038216610e765760405162461bcd60e51b815260206004820152601c60248201527f537061726b5661756c743a20696e76616c69642072656365697665720000000060448201526064016108c5565b610ea27f0000000000000000000000000000000000000000000000000000000000000000333086611ee7565b6001600160a01b037f00000000000000000000000000000000000000000000000000000000000000001663617ba0377f00000000000000000000000000000000000000000000000000000000000000006040516001600160e01b031960e084901b1681526001600160a01b0390911660048201526024810186905230604482015260006064820152608401600060405180830381600087803b158015610f4757600080fd5b505af1158015610f5b573d6000803e3d6000fd5b5050604080518681524260208201527fb33f52a884845ebc85c1ecd95e82a724513a19038c149a2a695621371577d346935001905060405180910390a182600b6000828254610faa919061293a565b90915550610fb9905083611a24565b9050610fc58282611f4e565b60408051848152602081018390526001600160a01b0384169133917fdcbc1c05240f31ff3ad067ef1ee35ce4997762752e3a095284754544f4c709d7910160405180910390a36106cd6001600655565b61101d611b30565b6110276000611f88565b565b606080600c80548060200260200160405190810160405280929190818152602001828054801561108257602002820191906000526020600020905b81546001600160a01b03168152600190910190602001808311611064575b50505050509150815167ffffffffffffffff8111156110a3576110a3612979565b6040519080825280602002602001820160405280156110cc578160200160208202803683370190505b50905060005b825181101561113f57600e60008483815181106110f1576110f1612924565b60200260200101516001600160a01b03166001600160a01b031681526020019081526020016000205482828151811061112c5761112c612924565b60209081029190910101526001016110d2565b509091565b60608060008060008060076008611159610640565b600254611164610d2b565b7f000000000000000000000000000000000000000000000000000000000000000085805461119190612893565b80601f01602080910402602001604051908101604052809291908181526020018280546111bd90612893565b801561120a5780601f106111df5761010080835404028352916020019161120a565b820191906000526020600020905b8154815290600101906020018083116111ed57829003601f168201915b5050505050955084805461121d90612893565b80601f016020809104026020016040519081016040528092919081815260200182805461124990612893565b80156112965780601f1061126b57610100808354040283529160200191611296565b820191906000526020600020905b81548152906001019060200180831161127957829003601f168201915b50505050509450955095509550955095509550909192939495565b600880546107df90612893565b600060001960006112ce8561170f565b90506107a533858388611fda565b6060600480546106e290612893565b6000336107bb818585611e57565b611301611b30565b6001600160a01b0381166000908152600d602052604090205460ff166113695760405162461bcd60e51b815260206004820152601f60248201527f537061726b5661756c743a20726563697069656e74206e6f7420666f756e640060448201526064016108c5565b6001600160a01b0381166000908152600d60209081526040808320805460ff19169055600e90915281208190555b600c5481101561149257816001600160a01b0316600c82815481106113be576113be612924565b6000918252602090912001546001600160a01b03160361148a57600c80546113e89060019061294d565b815481106113f8576113f8612924565b600091825260209091200154600c80546001600160a01b03909216918390811061142457611424612924565b9060005260206000200160006101000a8154816001600160a01b0302191690836001600160a01b03160217905550600c8054806114635761146361298f565b600082815260209020810160001990810180546001600160a01b0319169055019055611492565b600101611397565b506040516001600160a01b038216907f5cd081c85290f7314070d11dd6efb7798a61838e597f283577729384c1f804ff90600090a250565b6114d2611b30565b6114da611b5d565b60006114e4610d2b565b9050600081116115365760405162461bcd60e51b815260206004820152601e60248201527f537061726b5661756c743a206e6f207969656c6420617661696c61626c65000060448201526064016108c5565b600c546115915760405162461bcd60e51b8152602060048201526024808201527f537061726b5661756c743a206e6f20726563697069656e747320636f6e6669676044820152631d5c995960e21b60648201526084016108c5565b600c5460009067ffffffffffffffff8111156115af576115af612979565b6040519080825280602002602001820160405280156115d8578160200160208202803683370190505b50600c5490915060009067ffffffffffffffff8111156115fa576115fa612979565b604051908082528060200260200182016040528015611623578160200160208202803683370190505b50905060005b600c548110156116f7576000600c828154811061164857611648612924565b60009182526020808320909101546001600160a01b0316808352600d90915260409091205490915060ff16156116ee578084838151811061168b5761168b612924565b6001600160a01b039283166020918202929092018101919091529082166000908152600e9091526040902054612710906116c590876128e3565b6116cf9190612910565b8383815181106116e1576116e1612924565b6020026020010181815250505b50600101611629565b506117028282611b87565b5050506110276001600655565b60006106cd826001611eb6565b60008061172883611a58565b90508085111561176457604051633fa733bb60e21b81526001600160a01b038416600482015260248101869052604481018290526064016108c5565b600061176f866107c5565b905061177e338686898561206c565b95945050505050565b6000611791611b5d565b600084116117e15760405162461bcd60e51b815260206004820152601a60248201527f537061726b5661756c743a20696e76616c69642073686172657300000000000060448201526064016108c5565b6001600160a01b0383166118375760405162461bcd60e51b815260206004820152601c60248201527f537061726b5661756c743a20696e76616c69642072656365697665720000000060448201526064016108c5565b336001600160a01b0383161461185257611852823386611dde565b61185c828561212a565b61186584610765565b90506001600160a01b037f0000000000000000000000000000000000000000000000000000000000000000166369328dec7f00000000000000000000000000000000000000000000000000000000000000006040516001600160e01b031960e084901b1681526001600160a01b039091166004820152602481018490523060448201526064016020604051808303816000875af115801561190a573d6000803e3d6000fd5b505050506040513d601f19601f8201168201806040525081019061192e919061287a565b50604080518281524260208201527fab904a5cae1328ef561239013ea25a77e96eaead586a51f7f0ab3756234be617910160405180910390a16000611971610640565b600b5461197e90846128e3565b6119889190612910565b905080600b600082825461199c919061294d565b909155506119ce90507f00000000000000000000000000000000000000000000000000000000000000005b8584612160565b60408051838152602081018790526001600160a01b03808616929087169133917ffbde797d201c681b91056529119e0b02407c7bb96a4a2c75c01fc9667232c8db910160405180910390a450610d246001600655565b600080611a3060025490565b905080600003611a41575090919050565b6000611a4b610640565b90508061079b83866128e3565b6001600160a01b0381166000908152602081905260408120546106cd906000611eb6565b6001600160a01b0381166000908152602081905260408120546106cd565b60006106cd826000611af7565b611aaf611b30565b6001600160a01b038116611ad957604051631e4fbdf760e01b8152600060048201526024016108c5565b611ae281611f88565b50565b611af28383836001612191565b505050565b6000610d24611b0782600a612a89565b600254611b14919061293a565b611b1c610640565b611b2790600161293a565b85919085612258565b6005546001600160a01b031633146110275760405163118cdaa760e01b81523360048201526024016108c5565b600260065403611b8057604051633ee5aeb560e01b815260040160405180910390fd5b6002600655565b6000805b8351811015611bc357828181518110611ba657611ba6612924565b602002602001015182611bb9919061293a565b9150600101611b8b565b506001600160a01b037f0000000000000000000000000000000000000000000000000000000000000000166369328dec7f00000000000000000000000000000000000000000000000000000000000000006040516001600160e01b031960e084901b1681526001600160a01b039091166004820152602481018490523060448201526064016020604051808303816000875af1158015611c67573d6000803e3d6000fd5b505050506040513d601f19601f82011682018060405250810190611c8b919061287a565b50604080518281524260208201527fab904a5cae1328ef561239013ea25a77e96eaead586a51f7f0ab3756234be617910160405180910390a17f000000000000000000000000000000000000000000000000000000000000000060005b8451811015611dd7576000848281518110611d0557611d05612924565b60200260200101511115611dcf57611d5082868381518110611d2957611d29612924565b6020026020010151868481518110611d4357611d43612924565b6020026020010151612160565b848181518110611d6257611d62612924565b60200260200101516001600160a01b03167fdb76c2f65a826be24c5db36ed4e02c8cfa01cea5cd8d562570d19d6f1816b151858381518110611da657611da6612924565b602002602001015142604051611dc6929190918252602082015260400190565b60405180910390a25b600101611ce8565b5050505050565b6001600160a01b03838116600090815260016020908152604080832093861683529290522054600019811015610b265781811015611e4857604051637dc7a0d960e11b81526001600160a01b038416600482015260248101829052604481018390526064016108c5565b610b2684848484036000612191565b6001600160a01b038316611e8157604051634b637e8f60e11b8152600060048201526024016108c5565b6001600160a01b038216611eab5760405163ec442f0560e01b8152600060048201526024016108c5565b611af283838361229c565b6000610d24611ec3610640565b611ece90600161293a565b611eda6000600a612a89565b600254611b27919061293a565b6040516001600160a01b038481166024830152838116604483015260648201839052610b269186918216906323b872dd906084015b604051602081830303815290604052915060e01b6020820180516001600160e01b0383818316178352505050506123c6565b6001600160a01b038216611f785760405163ec442f0560e01b8152600060048201526024016108c5565b611f846000838361229c565b5050565b600580546001600160a01b038381166001600160a01b0319831681179093556040519116919082907f8be0079c531659141344cd1fd0a4f28419497f9722a3daafe3b4186f6b6457e090600090a35050565b6120067f0000000000000000000000000000000000000000000000000000000000000000853085611ee7565b6120108382611f4e565b826001600160a01b0316846001600160a01b03167fdcbc1c05240f31ff3ad067ef1ee35ce4997762752e3a095284754544f4c709d7848460405161205e929190918252602082015260400190565b60405180910390a350505050565b826001600160a01b0316856001600160a01b03161461209057612090838683611dde565b61209a838261212a565b6120c37f00000000000000000000000000000000000000000000000000000000000000006119c7565b826001600160a01b0316846001600160a01b0316866001600160a01b03167ffbde797d201c681b91056529119e0b02407c7bb96a4a2c75c01fc9667232c8db858560405161211b929190918252602082015260400190565b60405180910390a45050505050565b6001600160a01b03821661215457604051634b637e8f60e11b8152600060048201526024016108c5565b611f848260008361229c565b6040516001600160a01b03838116602483015260448201839052611af291859182169063a9059cbb90606401611f1c565b6001600160a01b0384166121bb5760405163e602df0560e01b8152600060048201526024016108c5565b6001600160a01b0383166121e557604051634a1406b160e11b8152600060048201526024016108c5565b6001600160a01b0380851660009081526001602090815260408083209387168352929052208290558015610b2657826001600160a01b0316846001600160a01b03167f8c5be1e5ebec7d5bd14f71427d1e84f3dd0314c0f7b2291e5b200ac8c7c3b9258460405161205e91815260200190565b600061228761226683612437565b801561228257506000848061227d5761227d6128fa565b868809115b151590565b612292868686612464565b61177e919061293a565b6001600160a01b0383166122c75780600260008282546122bc919061293a565b909155506123399050565b6001600160a01b0383166000908152602081905260409020548181101561231a5760405163391434e360e21b81526001600160a01b038516600482015260248101829052604481018390526064016108c5565b6001600160a01b03841660009081526020819052604090209082900390555b6001600160a01b03821661235557600280548290039055612374565b6001600160a01b03821660009081526020819052604090208054820190555b816001600160a01b0316836001600160a01b03167fddf252ad1be2c89b69c2b068fc378daa952ba7f163c4a11628f55a4df523b3ef836040516123b991815260200190565b60405180910390a3505050565b600080602060008451602086016000885af1806123e9576040513d6000823e3d81fd5b50506000513d9150811561240157806001141561240e565b6001600160a01b0384163b155b15610b2657604051635274afe760e01b81526001600160a01b03851660048201526024016108c5565b6000600282600381111561244d5761244d612a98565b6124579190612aae565b60ff166001149050919050565b60008060006124738686612519565b91509150816000036124985783818161248e5761248e6128fa565b0492505050610d24565b8184116124af576124af6003851502601118612537565b6000848688096000868103871696879004966002600389028118808a02820302808a02820302808a02820302808a02820302808a02820302808a02909103029181900381900460010185841190960395909502919093039390930492909217029150509392505050565b60008060001983850993909202808410938190039390930393915050565b634e487b71600052806020526024601cfd5b6000815180845260005b8181101561256f57602081850181015186830182015201612553565b506000602082860101526020601f19601f83011685010191505092915050565b602081526000610d246020830184612549565b6000602082840312156125b457600080fd5b5035919050565b80356001600160a01b03811681146125d257600080fd5b919050565b600080604083850312156125ea57600080fd5b6125f3836125bb565b946020939093013593505050565b60008083601f84011261261357600080fd5b50813567ffffffffffffffff81111561262b57600080fd5b6020830191508360208260051b850101111561264657600080fd5b9250929050565b6000806000806040858703121561266357600080fd5b843567ffffffffffffffff8082111561267b57600080fd5b61268788838901612601565b909650945060208701359150808211156126a057600080fd5b506126ad87828801612601565b95989497509550505050565b6000806000606084860312156126ce57600080fd5b6126d7846125bb565b92506126e5602085016125bb565b9150604084013590509250925092565b60006020828403121561270757600080fd5b610d24826125bb565b6000806040838503121561272357600080fd5b82359150612733602084016125bb565b90509250929050565b604080825283519082018190526000906020906060840190828701845b8281101561277e5781516001600160a01b031684529284019290840190600101612759565b5050508381038285015284518082528583019183019060005b818110156127b357835183529284019291840191600101612797565b5090979650505050505050565b60c0815260006127d360c0830189612549565b82810360208401526127e58189612549565b60408401979097525050606081019390935260808301919091526001600160a01b031660a09091015292915050565b60008060006060848603121561282957600080fd5b83359250612839602085016125bb565b9150612847604085016125bb565b90509250925092565b6000806040838503121561286357600080fd5b61286c836125bb565b9150612733602084016125bb565b60006020828403121561288c57600080fd5b5051919050565b600181811c908216806128a757607f821691505b6020821081036128c757634e487b7160e01b600052602260045260246000fd5b50919050565b634e487b7160e01b600052601160045260246000fd5b80820281158282048414176106cd576106cd6128cd565b634e487b7160e01b600052601260045260246000fd5b60008261291f5761291f6128fa565b500490565b634e487b7160e01b600052603260045260246000fd5b808201808211156106cd576106cd6128cd565b818103818111156106cd576106cd6128cd565b60ff81811683821601908111156106cd576106cd6128cd565b634e487b7160e01b600052604160045260246000fd5b634e487b7160e01b600052603160045260246000fd5b600181815b808511156129e05781600019048211156129c6576129c66128cd565b808516156129d357918102915b93841c93908002906129aa565b509250929050565b6000826129f7575060016106cd565b81612a04575060006106cd565b8160018114612a1a5760028114612a2457612a40565b60019150506106cd565b60ff841115612a3557612a356128cd565b50506001821b6106cd565b5060208310610133831016604e8410600b8410161715612a63575081810a6106cd565b612a6d83836129a5565b8060001904821115612a8157612a816128cd565b029392505050565b6000610d2460ff8416836129e8565b634e487b7160e01b600052602160045260246000fd5b600060ff831680612ac157612ac16128fa565b8060ff8416069150509291505056fea2646970667358221220e1425300b403eab7727011cce137a320d43118aa3f853b37d36e8b54a70ac08a64736f6c63430008170033a26469706673582212209cd25ba870dc0591d955d396c68d5ae6efce2d0abd6fadb8d492e7610af0bcbd64736f6c63430008170033",
  "linkReferences": {},
  "deployedLinkReferences": {}
}