{
  "_format": "hh-sol-artifact-1",
  "contractName": "VaultFactory",
  "sourceName": "contracts/VaultFactory.sol",
  "abi": [
    {
      "inputs": [
        {
          "internalType": "address",
          "name": "owner",
          "type": "address"
        }
      ],
      "stateMutability": "nonpayable",
      "type": "constructor"
    },
    {
      "inputs": [
        {
          "internalType": "address",
          "name": "owner",
          "type": "address"
        }
      ],
      "name": "OwnableInvalidOwner",
      "type": "error"
    },
    {
      "inputs": [
        {
          "internalType": "address",
          "name": "account",
          "type": "address"
        }
      ],
      "name": "OwnableUnauthorizedAccount",
      "type": "error"
    },
    {
      "anonymous": false,
      "inputs": [
        {
          "indexed": true,
          "internalType": "address",
          "name": "previousOwner",
          "type": "address"
        },
        {
          "indexed": true,
          "internalType": "address",
          "name": "newOwner",
          "type": "address"
        }
      ],
      "name": "OwnershipTransferred",
      "type": "event"
    },
    {
      "anonymous": false,
      "inputs": [
        {
          "indexed": true,
          "internalType": "address",
          "name": "vault",
          "type": "address"
        },
        {
          "indexed": true,
          "internalType": "address",
          "name": "deployer",
          "type": "address"
        },
        {
          "indexed": false,
          "internalType": "string",
          "name": "name",
          "type": "string"
        },
        {
          "indexed": false,
          "internalType": "address",
          "name": "asset",
          "type": "address"
        }
      ],
      "name": "VaultCreated",
      "type": "event"
    },
    {
      "inputs": [
        {
          "internalType": "address",
          "name": "asset",
          "type": "address"
        },
        {
          "internalType": "string",
          "name": "name",
          "type": "string"
        },
        {
          "internalType": "string",
          "name": "description",
          "type": "string"
        }
      ],
      "name": "createVault",
      "outputs": [
        {
          "internalType": "address",
          "name": "vaultAddress",
          "type": "address"
        }
      ],
      "stateMutability": "nonpayable",
      "type": "function"
    },
    {
      "inputs": [],
      "name": "getAllVaults",
      "outputs": [
        {
          "internalType": "address[]",
          "name": "addresses",
          "type": "address[]"
        }
      ],
      "stateMutability": "view",
      "type": "function"
    },
    {
      "inputs": [],
      "name": "getVaultCount",
      "outputs": [
        {
          "internalType": "uint256",
          "name": "count",
          "type": "uint256"
        }
      ],
      "stateMutability": "view",
      "type": "function"
    },
    {
      "inputs": [
        {
          "internalType": "address",
          "name": "deployer",
          "type": "address"
        }
      ],
      "name": "getVaultsByDeployer",
      "outputs": [
        {
          "internalType": "address[]",
          "name": "addresses",
          "type": "address[]"
        }
      ],
      "stateMutability": "view",
      "type": "function"
    },
    {
      "inputs": [],
      "name": "owner",
      "outputs": [
        {
          "internalType": "address",
          "name": "",
          "type": "address"
        }
      ],
      "stateMutability": "view",
      "type": "function"
    },
    {
      "inputs": [],
      "name": "renounceOwnership",
      "outputs": [],
      "stateMutability": "nonpayable",
      "type": "function"
    },
    {
      "inputs": [
        {
          "internalType": "address",
          "name": "newOwner",
          "type": "address"
        }
      ],
      "name": "transferOwnership",
      "outputs": [],
      "stateMutability": "nonpayable",
      "type": "function"
    },
    {
      "inputs": [
        {
          "internalType": "uint256",
          "name": "",
          "type": "uint256"
        }
      ],
      "name": "vaults",
      "outputs": [
        {
          "internalType": "address",
          "name": "",
          "type": "address"
        }
      ],
      "stateMutability": "view",
      "type": "function"
    },
    {
      "inputs": [
        {
          "internalType": "address",
          "name": "",
          "type": "address"
        },
        {
          "internalType": "uint256",
          "name": "",
          "type": "uint256"
        }
      ],
      "name": "vaultsByDeployer",
      "outputs": [
        {
          "internalType": "address",
          "name": "",
          "type": "address"
        }
      ],
      "stateMutability": "view",
      "type": "function"
    }
  ],
  "bytecode": "0x608060405234801561001057600080fd5b50604051612dcc380380612dcc83398101604081905261002f916100be565b806001600160a01b03811661005e57604051631e4fbdf760e01b81526000600482015260240160405180910390fd5b6100678161006e565b50506100ee565b600080546001600160a01b038381166001600160a01b0319831681178455604051919092169283917f8be0079c531659141344cd1fd0a4f28419497f9722a3daafe3b4186f6b6457e09190a35050565b6000602082840312156100d057600080fd5b81516001600160a01b03811681146100e757600080fd5b9392505050565b612ccf806100fd6000396000f3fe60806040523480156200001157600080fd5b50600436106200009f5760003560e01c80638c64ea4a116200006e5780638c64ea4a146200010d5780638da5cb5b146200012457806397331bf91462000136578063d5e15485146200014f578063f2fde38b146200016657600080fd5b8063515d61ec14620000a4578063715018a614620000d857806374d4e49114620000e45780637e880c8a14620000f6575b600080fd5b620000bb620000b536600462000629565b6200017d565b6040516001600160a01b0390911681526020015b60405180910390f35b620000e262000338565b005b600154604051908152602001620000cf565b620000bb62000107366004620006a6565b62000350565b620000bb6200011e366004620006d3565b62000389565b6000546001600160a01b0316620000bb565b62000140620003b4565b604051620000cf9190620006ed565b62000140620001603660046200073c565b62000418565b620000e2620001773660046200073c565b62000490565b60006001600160a01b038416620001e75760405162461bcd60e51b815260206004820152602360248201527f5661756c74466163746f72793a20696e76616c6964206173736574206164647260448201526265737360e81b60648201526084015b60405180910390fd5b60008351116200023a5760405162461bcd60e51b815260206004820152601b60248201527f5661756c74466163746f72793a206e616d6520726571756972656400000000006044820152606401620001de565b6000848484336040516200024e9062000553565b6200025d9493929190620007a9565b604051809103906000f0801580156200027a573d6000803e3d6000fd5b506001805480820182557fb10e2d527612073b26eecdfd717e6a320cf44b4afac2b0732d9fcbe2b7fa0cf60180546001600160a01b0384166001600160a01b03199182168117909255336000818152600260209081526040808320805497880181558352912090940180549092168317909155915192945084935090917f86c9dd70a6de5b89643ead0c76a7d9c215afd05c87f64d8eaff050b89c341bb390620003289088908a90620007f6565b60405180910390a3509392505050565b62000342620004d4565b6200034e600062000503565b565b600260205281600052604060002081815481106200036d57600080fd5b6000918252602090912001546001600160a01b03169150829050565b600181815481106200039a57600080fd5b6000918252602090912001546001600160a01b0316905081565b606060018054806020026020016040519081016040528092919081815260200182805480156200040e57602002820191906000526020600020905b81546001600160a01b03168152600190910190602001808311620003ef575b5050505050905090565b6001600160a01b0381166000908152600260209081526040918290208054835181840281018401909452808452606093928301828280156200048457602002820191906000526020600020905b81546001600160a01b0316815260019091019060200180831162000465575b50505050509050919050565b6200049a620004d4565b6001600160a01b038116620004c657604051631e4fbdf760e01b815260006004820152602401620001de565b620004d18162000503565b50565b6000546001600160a01b031633146200034e5760405163118cdaa760e01b8152336004820152602401620001de565b600080546001600160a01b038381166001600160a01b0319831681178455604051919092169283917f8be0079c531659141344cd1fd0a4f28419497f9722a3daafe3b4186f6b6457e09190a35050565b612477806200082383390190565b80356001600160a01b03811681146200057957600080fd5b919050565b634e487b7160e01b600052604160045260246000fd5b600082601f830112620005a657600080fd5b813567ffffffffffffffff80821115620005c457620005c46200057e565b604051601f8301601f19908116603f01168101908282118183101715620005ef57620005ef6200057e565b816040528381528660208588010111156200060957600080fd5b836020870160208301376000602085830101528094505050505092915050565b6000806000606084860312156200063f57600080fd5b6200064a8462000561565b9250602084013567ffffffffffffffff808211156200066857600080fd5b620006768783880162000594565b935060408601359150808211156200068d57600080fd5b506200069c8682870162000594565b9150509250925092565b60008060408385031215620006ba57600080fd5b620006c58362000561565b946020939093013593505050565b600060208284031215620006e657600080fd5b5035919050565b6020808252825182820181905260009190848201906040850190845b81811015620007305783516001600160a01b03168352928401929184019160010162000709565b50909695505050505050565b6000602082840312156200074f57600080fd5b6200075a8262000561565b9392505050565b6000815180845260005b8181101562000789576020818501810151868301820152016200076b565b506000602082860101526020601f19601f83011685010191505092915050565b600060018060a01b03808716835260806020840152620007cd608084018762000761565b8381036040850152620007e1818762000761565b92505080841660608401525095945050505050565b6040815260006200080b604083018562000761565b905060018060a01b0383166020830152939250505056fe60c06040523480156200001157600080fd5b50604051620024773803806200247783398101604081905262000034916200044f565b808484604051602001620000499190620004e3565b60408051601f198184030181529190526200006487620001a2565b60405160200162000076919062000513565b60408051601f198184030181529190526003620000948382620005cf565b506004620000a38282620005cf565b505050600080620000ba836200023260201b60201c565b9150915081620000cc576012620000ce565b805b60ff1660a05250506001600160a01b0390811660805281166200010b57604051631e4fbdf760e01b81526000600482015260240160405180910390fd5b620001168162000317565b50600160065560076200012a8482620005cf565b506008620001398382620005cf565b50600980546001600160a01b0319166001600160a01b03831690811790915542600a556040517fdc0106d0ecb9a6a667d6fe449d5eb33ccf6741ee43991813aec858b15e72209490620001909086908690620006c9565b60405180910390a25050505062000773565b6060816001600160a01b03166395d89b416040518163ffffffff1660e01b8152600401600060405180830381865afa9250505080156200020657506040513d6000823e601f3d908101601f19168201604052620002039190810190620006fb565b60015b6200022c5750506040805180820190915260058152641054d4d15560da1b602082015290565b92915050565b60408051600481526024810182526020810180516001600160e01b031663313ce56760e01b17905290516000918291829182916001600160a01b038716916200027b916200073b565b600060405180830381855afa9150503d8060008114620002b8576040519150601f19603f3d011682016040523d82523d6000602084013e620002bd565b606091505b5091509150818015620002d257506020815110155b156200030a57600081806020019051810190620002f0919062000759565b905060ff811162000308576001969095509350505050565b505b5060009485945092505050565b600580546001600160a01b038381166001600160a01b0319831681179093556040519116919082907f8be0079c531659141344cd1fd0a4f28419497f9722a3daafe3b4186f6b6457e090600090a35050565b6001600160a01b03811681146200037f57600080fd5b50565b634e487b7160e01b600052604160045260246000fd5b60005b83811015620003b55781810151838201526020016200039b565b50506000910152565b600082601f830112620003d057600080fd5b81516001600160401b0380821115620003ed57620003ed62000382565b604051601f8301601f19908116603f0116810190828211818310171562000418576200041862000382565b816040528381528660208588010111156200043257600080fd5b6200044584602083016020890162000398565b9695505050505050565b600080600080608085870312156200046657600080fd5b8451620004738162000369565b60208601519094506001600160401b03808211156200049157600080fd5b6200049f88838901620003be565b94506040870151915080821115620004b657600080fd5b50620004c587828801620003be565b9250506060850151620004d88162000369565b939692955090935050565b6502b30bab63a160d51b8152600082516200050681600685016020870162000398565b9190910160060192915050565b603b60f91b8152600082516200053181600185016020870162000398565b9190910160010192915050565b600181811c908216806200055357607f821691505b6020821081036200057457634e487b7160e01b600052602260045260246000fd5b50919050565b601f821115620005ca576000816000526020600020601f850160051c81016020861015620005a55750805b601f850160051c820191505b81811015620005c657828155600101620005b1565b5050505b505050565b81516001600160401b03811115620005eb57620005eb62000382565b6200060381620005fc84546200053e565b846200057a565b602080601f8311600181146200063b5760008415620006225750858301515b600019600386901b1c1916600185901b178555620005c6565b600085815260208120601f198616915b828110156200066c578886015182559484019460019091019084016200064b565b50858210156200068b5787850151600019600388901b60f8161c191681555b5050505050600190811b01905550565b60008151808452620006b581602086016020860162000398565b601f01601f19169290920160200192915050565b604081526000620006de60408301856200069b565b8281036020840152620006f281856200069b565b95945050505050565b6000602082840312156200070e57600080fd5b81516001600160401b038111156200072557600080fd5b6200073384828501620003be565b949350505050565b600082516200074f81846020870162000398565b9190910192915050565b6000602082840312156200076c57600080fd5b5051919050565b60805160a051611cbb620007bc60003960006106d80152600081816102ce015281816104c4015281816109bd01528181610b550152818161117101526112310152611cbb6000f3fe608060405234801561001057600080fd5b50600436106102115760003560e01c80638da5cb5b11610125578063c63d75b6116100ad578063d5f394881161007c578063d5f394881461044e578063d905777e14610461578063dd62ed3e14610474578063ef8b30f71461041f578063f2fde38b146104ad57600080fd5b8063c63d75b614610306578063c6e6f5921461041f578063ce96cb7714610432578063cf09e0d01461044557600080fd5b8063a9059cbb116100f4578063a9059cbb146103c0578063ad8bc26b146103d3578063b3d7f6b9146103e6578063b460af94146103f9578063ba0876521461040c57600080fd5b80638da5cb5b1461038157806394bf804d1461039257806395d89b41146103a55780639e641a55146103ad57600080fd5b8063313ce567116101a85780636e553f65116101775780636e553f651461031b57806370a082311461032e578063715018a6146103575780637f98aa7114610361578063874e1e041461037957600080fd5b8063313ce567146102b257806338d52e0f146102cc578063402d267d146103065780634cdad5061461024657600080fd5b80630a28a477116101e45780630a28a4771461027c5780630ace9ca01461028f57806318160ddd1461029757806323b872dd1461029f57600080fd5b806301e1d1141461021657806306fdde031461023157806307a2d13a14610246578063095ea7b314610259575b600080fd5b61021e6104c0565b6040519081526020015b60405180910390f35b610239610552565b60405161022891906117fc565b61021e61025436600461180f565b6105e4565b61026c610267366004611844565b6105f7565b6040519015158152602001610228565b61021e61028a36600461180f565b61060f565b61023961061c565b60025461021e565b61026c6102ad36600461186e565b6106aa565b6102ba6106d0565b60405160ff9091168152602001610228565b7f00000000000000000000000000000000000000000000000000000000000000005b6040516001600160a01b039091168152602001610228565b61021e6103143660046118aa565b5060001990565b61021e6103293660046118c5565b6106fc565b61021e61033c3660046118aa565b6001600160a01b031660009081526020819052604090205490565b61035f61071c565b005b610369610730565b60405161022894939291906118f1565b61023961086b565b6005546001600160a01b03166102ee565b61021e6103a03660046118c5565b610878565b6102396108ac565b61035f6103bb366004611844565b6108bb565b61026c6103ce366004611844565b610aa3565b61035f6103e1366004611976565b610ab1565b61021e6103f436600461180f565b610e51565b61021e6104073660046119e2565b610e5e565b61021e61041a3660046119e2565b610eb6565b61021e61042d36600461180f565b610ed7565b61021e6104403660046118aa565b610ee4565b61021e600a5481565b6009546102ee906001600160a01b031681565b61021e61046f3660046118aa565b610f08565b61021e610482366004611a1e565b6001600160a01b03918216600090815260016020908152604080832093909416825291909152205490565b61035f6104bb3660046118aa565b610f26565b60007f00000000000000000000000000000000000000000000000000000000000000006040516370a0823160e01b81523060048201526001600160a01b0391909116906370a0823190602401602060405180830381865afa158015610529573d6000803e3d6000fd5b505050506040513d601f19601f8201168201806040525081019061054d9190611a48565b905090565b60606003805461056190611a61565b80601f016020809104026020016040519081016040528092919081815260200182805461058d90611a61565b80156105da5780601f106105af576101008083540402835291602001916105da565b820191906000526020600020905b8154815290600101906020018083116105bd57829003601f168201915b5050505050905090565b60006105f1826000610f64565b92915050565b600033610605818585610f9e565b5060019392505050565b60006105f1826001610fb0565b6007805461062990611a61565b80601f016020809104026020016040519081016040528092919081815260200182805461065590611a61565b80156106a25780601f10610677576101008083540402835291602001916106a2565b820191906000526020600020905b81548152906001019060200180831161068557829003601f168201915b505050505081565b6000336106b8858285610fe0565b6106c3858585611046565b60019150505b9392505050565b600061054d817f0000000000000000000000000000000000000000000000000000000000000000611ab1565b60006107066110a5565b61071083836110cf565b90506105f16001600655565b6107246110ed565b61072e600061111a565b565b606080600080600760086107426104c0565b60025483805461075190611a61565b80601f016020809104026020016040519081016040528092919081815260200182805461077d90611a61565b80156107ca5780601f1061079f576101008083540402835291602001916107ca565b820191906000526020600020905b8154815290600101906020018083116107ad57829003601f168201915b505050505093508280546107dd90611a61565b80601f016020809104026020016040519081016040528092919081815260200182805461080990611a61565b80156108565780601f1061082b57610100808354040283529160200191610856565b820191906000526020600020905b81548152906001019060200180831161083957829003601f168201915b50505050509250935093509350935090919293565b6008805461062990611a61565b600060001961088b565b60405180910390fd5b600061089685610e51565b90506108a43385838861116c565b949350505050565b60606004805461056190611a61565b6108c36110ed565b6108cb6110a5565b6001600160a01b03821661091c5760405162461bcd60e51b815260206004820152601860248201527715985d5b1d0e881a5b9d985b1a59081c9958da5c1a595b9d60421b6044820152606401610882565b600081116109645760405162461bcd60e51b815260206004820152601560248201527415985d5b1d0e881a5b9d985b1a5908185b5bdd5b9d605a1b6044820152606401610882565b61096c6104c0565b8111156109bb5760405162461bcd60e51b815260206004820152601a60248201527f5661756c743a20696e73756666696369656e74206173736574730000000000006044820152606401610882565b7f000000000000000000000000000000000000000000000000000000000000000060405163a9059cbb60e01b81526001600160a01b03848116600483015260248201849052919091169063a9059cbb906044016020604051808303816000875af1158015610a2d573d6000803e3d6000fd5b505050506040513d601f19601f82011682018060405250810190610a519190611aeb565b50604080518281524260208201526001600160a01b038416917ff856db84e337792bff1cc18845f5fc16acc9934b441058d7d6a35fb687f4eae2910160405180910390a2610a9f6001600655565b5050565b600033610605818585611046565b610ab96110ed565b610ac16110a5565b828114610b105760405162461bcd60e51b815260206004820152601c60248201527f5661756c743a206172726179206c656e677468206d69736d61746368000000006044820152606401610882565b82610b535760405162461bcd60e51b81526020600482015260136024820152725661756c743a20656d7074792061727261797360681b6044820152606401610882565b7f00000000000000000000000000000000000000000000000000000000000000006000805b85811015610c88576000878783818110610b9457610b94611b0d565b9050602002016020810190610ba991906118aa565b6001600160a01b031603610bfa5760405162461bcd60e51b815260206004820152601860248201527715985d5b1d0e881a5b9d985b1a59081c9958da5c1a595b9d60421b6044820152606401610882565b6000858583818110610c0e57610c0e611b0d565b9050602002013511610c5a5760405162461bcd60e51b815260206004820152601560248201527415985d5b1d0e881a5b9d985b1a5908185b5bdd5b9d605a1b6044820152606401610882565b848482818110610c6c57610c6c611b0d565b9050602002013582610c7e9190611b23565b9150600101610b78565b50610c916104c0565b811115610ce05760405162461bcd60e51b815260206004820152601a60248201527f5661756c743a20696e73756666696369656e74206173736574730000000000006044820152606401610882565b60005b85811015610e3e57826001600160a01b031663a9059cbb888884818110610d0c57610d0c611b0d565b9050602002016020810190610d2191906118aa565b878785818110610d3357610d33611b0d565b6040516001600160e01b031960e087901b1681526001600160a01b03909416600485015260200291909101356024830152506044016020604051808303816000875af1158015610d87573d6000803e3d6000fd5b505050506040513d601f19601f82011682018060405250810190610dab9190611aeb565b50868682818110610dbe57610dbe611b0d565b9050602002016020810190610dd391906118aa565b6001600160a01b03167ff856db84e337792bff1cc18845f5fc16acc9934b441058d7d6a35fb687f4eae2868684818110610e0f57610e0f611b0d565b9050602002013542604051610e2e929190918252602082015260400190565b60405180910390a2600101610ce3565b505050610e4b6001600655565b50505050565b60006105f1826001610f64565b600080610e6a83610ee4565b905080851115610e9357828582604051633fa733bb60e21b815260040161088293929190611aca565b6000610e9e8661060f565b9050610ead33868689856111fe565b95945050505050565b6000610ec06110a5565b610ecb8484846112be565b90506106c96001600655565b60006105f1826000610fb0565b6001600160a01b0381166000908152602081905260408120546105f1906000610f64565b6001600160a01b0381166000908152602081905260408120546105f1565b610f2e6110ed565b6001600160a01b038116610f5857604051631e4fbdf760e01b815260006004820152602401610882565b610f618161111a565b50565b60006106c9610f716104c0565b610f7c906001611b23565b610f886000600a611c1a565b600254610f959190611b23565b8591908561130d565b610fab8383836001611351565b505050565b60006106c9610fc082600a611c1a565b600254610fcd9190611b23565b610fd56104c0565b610f95906001611b23565b6001600160a01b03838116600090815260016020908152604080832093861683529290522054600019811015610e4b578181101561103757828183604051637dc7a0d960e11b815260040161088293929190611aca565b610e4b84848484036000611351565b6001600160a01b03831661107057604051634b637e8f60e11b815260006004820152602401610882565b6001600160a01b03821661109a5760405163ec442f0560e01b815260006004820152602401610882565b610fab838383611418565b6002600654036110c857604051633ee5aeb560e01b815260040160405180910390fd5b6002600655565b600060001960006110df85610ed7565b90506108a43385878461116c565b6005546001600160a01b0316331461072e5760405163118cdaa760e01b8152336004820152602401610882565b600580546001600160a01b038381166001600160a01b0319831681179093556040519116919082907f8be0079c531659141344cd1fd0a4f28419497f9722a3daafe3b4186f6b6457e090600090a35050565b6111987f000000000000000000000000000000000000000000000000000000000000000085308561152f565b6111a28382611596565b826001600160a01b0316846001600160a01b03167fdcbc1c05240f31ff3ad067ef1ee35ce4997762752e3a095284754544f4c709d784846040516111f0929190918252602082015260400190565b60405180910390a350505050565b826001600160a01b0316856001600160a01b03161461122257611222838683610fe0565b61122c83826115cc565b6112577f00000000000000000000000000000000000000000000000000000000000000008584611602565b826001600160a01b0316846001600160a01b0316866001600160a01b03167ffbde797d201c681b91056529119e0b02407c7bb96a4a2c75c01fc9667232c8db85856040516112af929190918252602082015260400190565b60405180910390a45050505050565b6000806112ca83610f08565b9050808511156112f357828582604051632e52afbb60e21b815260040161088293929190611aca565b60006112fe866105e4565b9050610ead338686848a6111fe565b600061133c61131b83611633565b801561133757506000848061133257611332611c29565b868809115b151590565b611347868686611660565b610ead9190611b23565b6001600160a01b03841661137b5760405163e602df0560e01b815260006004820152602401610882565b6001600160a01b0383166113a557604051634a1406b160e11b815260006004820152602401610882565b6001600160a01b0380851660009081526001602090815260408083209387168352929052208290558015610e4b57826001600160a01b0316846001600160a01b03167f8c5be1e5ebec7d5bd14f71427d1e84f3dd0314c0f7b2291e5b200ac8c7c3b925846040516111f091815260200190565b6001600160a01b0383166114435780600260008282546114389190611b23565b909155506114a29050565b6001600160a01b038316600090815260208190526040902054818110156114835783818360405163391434e360e21b815260040161088293929190611aca565b6001600160a01b03841660009081526020819052604090209082900390555b6001600160a01b0382166114be576002805482900390556114dd565b6001600160a01b03821660009081526020819052604090208054820190555b816001600160a01b0316836001600160a01b03167fddf252ad1be2c89b69c2b068fc378daa952ba7f163c4a11628f55a4df523b3ef8360405161152291815260200190565b60405180910390a3505050565b6040516001600160a01b038481166024830152838116604483015260648201839052610e4b9186918216906323b872dd906084015b604051602081830303815290604052915060e01b6020820180516001600160e01b038381831617835250505050611715565b6001600160a01b0382166115c05760405163ec442f0560e01b815260006004820152602401610882565b610a9f60008383611418565b6001600160a01b0382166115f657604051634b637e8f60e11b815260006004820152602401610882565b610a9f82600083611418565b6040516001600160a01b03838116602483015260448201839052610fab91859182169063a9059cbb90606401611564565b6000600282600381111561164957611649611c3f565b6116539190611c55565b60ff166001149050919050565b600080600061166f8686611786565b91509150816000036116945783818161168a5761168a611c29565b04925050506106c9565b8184116116ab576116ab60038515026011186117a4565b6000848688096000868103871696879004966002600389028118808a02820302808a02820302808a02820302808a02820302808a02820302808a02909103029181900381900460010185841190960395909502919093039390930492909217029150509392505050565b600080602060008451602086016000885af180611738576040513d6000823e3d81fd5b50506000513d9150811561175057806001141561175d565b6001600160a01b0384163b155b15610e4b57604051635274afe760e01b81526001600160a01b0385166004820152602401610882565b60008060001983850993909202808410938190039390930393915050565b634e487b71600052806020526024601cfd5b6000815180845260005b818110156117dc576020818501810151868301820152016117c0565b506000602082860101526020601f19601f83011685010191505092915050565b6020815260006106c960208301846117b6565b60006020828403121561182157600080fd5b5035919050565b80356001600160a01b038116811461183f57600080fd5b919050565b6000806040838503121561185757600080fd5b61186083611828565b946020939093013593505050565b60008060006060848603121561188357600080fd5b61188c84611828565b925061189a60208501611828565b9150604084013590509250925092565b6000602082840312156118bc57600080fd5b6106c982611828565b600080604083850312156118d857600080fd5b823591506118e860208401611828565b90509250929050565b60808152600061190460808301876117b6565b828103602084015261191681876117b6565b604084019590955250506060015292915050565b60008083601f84011261193c57600080fd5b50813567ffffffffffffffff81111561195457600080fd5b6020830191508360208260051b850101111561196f57600080fd5b9250929050565b6000806000806040858703121561198c57600080fd5b843567ffffffffffffffff808211156119a457600080fd5b6119b08883890161192a565b909650945060208701359150808211156119c957600080fd5b506119d68782880161192a565b95989497509550505050565b6000806000606084860312156119f757600080fd5b83359250611a0760208501611828565b9150611a1560408501611828565b90509250925092565b60008060408385031215611a3157600080fd5b611a3a83611828565b91506118e860208401611828565b600060208284031215611a5a57600080fd5b5051919050565b600181811c90821680611a7557607f821691505b602082108103611a9557634e487b7160e01b600052602260045260246000fd5b50919050565b634e487b7160e01b600052601160045260246000fd5b60ff81811683821601908111156105f1576105f1611a9b565b6001600160a01b039390931683526020830191909152604082015260600190565b600060208284031215611afd57600080fd5b815180151581146106c957600080fd5b634e487b7160e01b600052603260045260246000fd5b808201808211156105f1576105f1611a9b565b600181815b80851115611b71578160001904821115611b5757611b57611a9b565b80851615611b6457918102915b93841c9390800290611b3b565b509250929050565b600082611b88575060016105f1565b81611b95575060006105f1565b8160018114611bab5760028114611bb557611bd1565b60019150506105f1565b60ff841115611bc657611bc6611a9b565b50506001821b6105f1565b5060208310610133831016604e8410600b8410161715611bf4575081810a6105f1565b611bfe8383611b36565b8060001904821115611c1257611c12611a9b565b029392505050565b60006106c960ff841683611b79565b634e487b7160e01b600052601260045260246000fd5b634e487b7160e01b600052602160045260246000fd5b600060ff831680611c7657634e487b7160e01b600052601260045260246000fd5b8060ff8416069150509291505056fea2646970667358221220c6d1c5f832b193835027be2e9f02b9cb7d9e6cffcb596a008639b514d74e66c264736f6c63430008170033a26469706673582212202d9115e1397dac29b7a7e42408b4b178093517af3195ec12b58556ae7cb4e41164736f6c63430008170033",
  "linkReferences": {},
  "deployedLinkReferences": {}
}